{
	"cw3.sol": {
		"Token": {
			"abi": [
				{
					"inputs": [
						{
							"internalType": "string",
							"name": "_tokenName",
							"type": "string"
						},
						{
							"internalType": "string",
							"name": "_tokenSymbol",
							"type": "string"
						}
					],
					"stateMutability": "nonpayable",
					"type": "constructor"
				},
				{
					"anonymous": false,
					"inputs": [
						{
							"indexed": true,
							"internalType": "address",
							"name": "to",
							"type": "address"
						},
						{
							"indexed": true,
							"internalType": "uint256",
							"name": "value",
							"type": "uint256"
						}
					],
					"name": "Mint",
					"type": "event"
				},
				{
					"anonymous": false,
					"inputs": [
						{
							"indexed": true,
							"internalType": "address",
							"name": "from",
							"type": "address"
						},
						{
							"indexed": true,
							"internalType": "uint256",
							"name": "value",
							"type": "uint256"
						}
					],
					"name": "Sell",
					"type": "event"
				},
				{
					"anonymous": false,
					"inputs": [
						{
							"indexed": true,
							"internalType": "address",
							"name": "from",
							"type": "address"
						},
						{
							"indexed": true,
							"internalType": "address",
							"name": "to",
							"type": "address"
						},
						{
							"indexed": true,
							"internalType": "uint256",
							"name": "value",
							"type": "uint256"
						}
					],
					"name": "Transfer",
					"type": "event"
				},
				{
					"stateMutability": "payable",
					"type": "fallback"
				},
				{
					"inputs": [
						{
							"internalType": "address",
							"name": "_account",
							"type": "address"
						}
					],
					"name": "balanceOf",
					"outputs": [
						{
							"internalType": "uint256",
							"name": "",
							"type": "uint256"
						}
					],
					"stateMutability": "view",
					"type": "function"
				},
				{
					"inputs": [],
					"name": "close",
					"outputs": [],
					"stateMutability": "payable",
					"type": "function"
				},
				{
					"inputs": [],
					"name": "getName",
					"outputs": [
						{
							"internalType": "string",
							"name": "",
							"type": "string"
						}
					],
					"stateMutability": "view",
					"type": "function"
				},
				{
					"inputs": [],
					"name": "getPrice",
					"outputs": [
						{
							"internalType": "uint128",
							"name": "",
							"type": "uint128"
						}
					],
					"stateMutability": "pure",
					"type": "function"
				},
				{
					"inputs": [],
					"name": "getSymbol",
					"outputs": [
						{
							"internalType": "string",
							"name": "",
							"type": "string"
						}
					],
					"stateMutability": "view",
					"type": "function"
				},
				{
					"inputs": [
						{
							"internalType": "address",
							"name": "to",
							"type": "address"
						},
						{
							"internalType": "uint256",
							"name": "value",
							"type": "uint256"
						}
					],
					"name": "mint",
					"outputs": [
						{
							"internalType": "bool",
							"name": "",
							"type": "bool"
						}
					],
					"stateMutability": "nonpayable",
					"type": "function"
				},
				{
					"inputs": [
						{
							"internalType": "uint256",
							"name": "value",
							"type": "uint256"
						}
					],
					"name": "sell",
					"outputs": [
						{
							"internalType": "bool",
							"name": "",
							"type": "bool"
						}
					],
					"stateMutability": "payable",
					"type": "function"
				},
				{
					"inputs": [],
					"name": "totalSupply",
					"outputs": [
						{
							"internalType": "uint256",
							"name": "",
							"type": "uint256"
						}
					],
					"stateMutability": "view",
					"type": "function"
				},
				{
					"inputs": [
						{
							"internalType": "address",
							"name": "to",
							"type": "address"
						},
						{
							"internalType": "uint256",
							"name": "value",
							"type": "uint256"
						}
					],
					"name": "transfer",
					"outputs": [
						{
							"internalType": "bool",
							"name": "",
							"type": "bool"
						}
					],
					"stateMutability": "nonpayable",
					"type": "function"
				},
				{
					"stateMutability": "payable",
					"type": "receive"
				}
			],
			"devdoc": {
				"kind": "dev",
				"methods": {},
				"version": 1
			},
			"evm": {
				"assembly": "    /* \"cw3.sol\":74:2589  contract Token {\r... */\n  mstore(0x40, 0x80)\n    /* \"cw3.sol\":212:213  0 */\n  0x00\n    /* \"cw3.sol\":182:213  uint256 private circulating = 0 */\n  0x03\n  sstore\n    /* \"cw3.sol\":485:683  constructor(string memory _tokenName, string memory _tokenSymbol) { // token set\r... */\n  callvalue\n  dup1\n  iszero\n  tag_1\n  jumpi\n  0x00\n  dup1\n  revert\ntag_1:\n  pop\n  mload(0x40)\n  sub(codesize, bytecodeSize)\n  dup1\n  bytecodeSize\n  dup4\n  codecopy\n  dup2\n  dup2\n  add\n  0x40\n  mstore\n  dup2\n  add\n  swap1\n  tag_2\n  swap2\n  swap1\n  tag_3\n  jump\t// in\ntag_2:\n    /* \"cw3.sol\":593:603  msg.sender */\n  caller\n    /* \"cw3.sol\":585:590  owner */\n  0x00\n  dup1\n    /* \"cw3.sol\":585:603  owner = msg.sender */\n  0x0100\n  exp\n  dup2\n  sload\n  dup2\n  0xffffffffffffffffffffffffffffffffffffffff\n  mul\n  not\n  and\n  swap1\n  dup4\n  0xffffffffffffffffffffffffffffffffffffffff\n  and\n  mul\n  or\n  swap1\n  sstore\n  pop\n    /* \"cw3.sol\":626:636  _tokenName */\n  dup2\n    /* \"cw3.sol\":614:623  tokenName */\n  0x01\n    /* \"cw3.sol\":614:636  tokenName = _tokenName */\n  swap1\n  dup1\n  mload\n  swap1\n  0x20\n  add\n  swap1\n  tag_6\n  swap3\n  swap2\n  swap1\n  tag_7\n  jump\t// in\ntag_6:\n  pop\n    /* \"cw3.sol\":661:673  _tokenSymbol */\n  dup1\n    /* \"cw3.sol\":647:658  tokenSymbol */\n  0x02\n    /* \"cw3.sol\":647:673  tokenSymbol = _tokenSymbol */\n  swap1\n  dup1\n  mload\n  swap1\n  0x20\n  add\n  swap1\n  tag_8\n  swap3\n  swap2\n  swap1\n  tag_7\n  jump\t// in\ntag_8:\n  pop\n    /* \"cw3.sol\":485:683  constructor(string memory _tokenName, string memory _tokenSymbol) { // token set\r... */\n  pop\n  pop\n    /* \"cw3.sol\":74:2589  contract Token {\r... */\n  jump(tag_9)\ntag_7:\n  dup3\n  dup1\n  sload\n  tag_10\n  swap1\n  tag_11\n  jump\t// in\ntag_10:\n  swap1\n  0x00\n  mstore\n  keccak256(0x00, 0x20)\n  swap1\n  0x1f\n  add\n  0x20\n  swap1\n  div\n  dup2\n  add\n  swap3\n  dup3\n  tag_13\n  jumpi\n  0x00\n  dup6\n  sstore\n  jump(tag_12)\ntag_13:\n  dup3\n  0x1f\n  lt\n  tag_14\n  jumpi\n  dup1\n  mload\n  not(0xff)\n  and\n  dup4\n  dup1\n  add\n  or\n  dup6\n  sstore\n  jump(tag_12)\ntag_14:\n  dup3\n  dup1\n  add\n  0x01\n  add\n  dup6\n  sstore\n  dup3\n  iszero\n  tag_12\n  jumpi\n  swap2\n  dup3\n  add\ntag_15:\n  dup3\n  dup2\n  gt\n  iszero\n  tag_16\n  jumpi\n  dup3\n  mload\n  dup3\n  sstore\n  swap2\n  0x20\n  add\n  swap2\n  swap1\n  0x01\n  add\n  swap1\n  jump(tag_15)\ntag_16:\ntag_12:\n  pop\n  swap1\n  pop\n  tag_17\n  swap2\n  swap1\n  tag_18\n  jump\t// in\ntag_17:\n  pop\n  swap1\n  jump\t// out\ntag_18:\ntag_19:\n  dup1\n  dup3\n  gt\n  iszero\n  tag_20\n  jumpi\n  0x00\n  dup2\n  0x00\n  swap1\n  sstore\n  pop\n  0x01\n  add\n  jump(tag_19)\ntag_20:\n  pop\n  swap1\n  jump\t// out\n    /* \"#utility.yul\":7:428   */\ntag_22:\n    /* \"#utility.yul\":96:101   */\n  0x00\n    /* \"#utility.yul\":121:187   */\n  tag_24\n    /* \"#utility.yul\":137:186   */\n  tag_25\n    /* \"#utility.yul\":179:185   */\n  dup5\n    /* \"#utility.yul\":137:186   */\n  tag_26\n  jump\t// in\ntag_25:\n    /* \"#utility.yul\":121:187   */\n  tag_27\n  jump\t// in\ntag_24:\n    /* \"#utility.yul\":112:187   */\n  swap1\n  pop\n    /* \"#utility.yul\":210:216   */\n  dup3\n    /* \"#utility.yul\":203:208   */\n  dup2\n    /* \"#utility.yul\":196:217   */\n  mstore\n    /* \"#utility.yul\":248:252   */\n  0x20\n    /* \"#utility.yul\":241:246   */\n  dup2\n    /* \"#utility.yul\":237:253   */\n  add\n    /* \"#utility.yul\":286:289   */\n  dup5\n    /* \"#utility.yul\":277:283   */\n  dup5\n    /* \"#utility.yul\":272:275   */\n  dup5\n    /* \"#utility.yul\":268:284   */\n  add\n    /* \"#utility.yul\":265:290   */\n  gt\n    /* \"#utility.yul\":262:374   */\n  iszero\n  tag_28\n  jumpi\n    /* \"#utility.yul\":293:372   */\n  tag_29\n  tag_30\n  jump\t// in\ntag_29:\n    /* \"#utility.yul\":262:374   */\ntag_28:\n    /* \"#utility.yul\":383:422   */\n  tag_31\n    /* \"#utility.yul\":415:421   */\n  dup5\n    /* \"#utility.yul\":410:413   */\n  dup3\n    /* \"#utility.yul\":405:408   */\n  dup6\n    /* \"#utility.yul\":383:422   */\n  tag_32\n  jump\t// in\ntag_31:\n    /* \"#utility.yul\":102:428   */\n  pop\n    /* \"#utility.yul\":7:428   */\n  swap4\n  swap3\n  pop\n  pop\n  pop\n  jump\t// out\n    /* \"#utility.yul\":448:803   */\ntag_33:\n    /* \"#utility.yul\":515:520   */\n  0x00\n    /* \"#utility.yul\":564:567   */\n  dup3\n    /* \"#utility.yul\":557:561   */\n  0x1f\n    /* \"#utility.yul\":549:555   */\n  dup4\n    /* \"#utility.yul\":545:562   */\n  add\n    /* \"#utility.yul\":541:568   */\n  slt\n    /* \"#utility.yul\":531:653   */\n  tag_35\n  jumpi\n    /* \"#utility.yul\":572:651   */\n  tag_36\n  tag_37\n  jump\t// in\ntag_36:\n    /* \"#utility.yul\":531:653   */\ntag_35:\n    /* \"#utility.yul\":682:688   */\n  dup2\n    /* \"#utility.yul\":676:689   */\n  mload\n    /* \"#utility.yul\":707:797   */\n  tag_38\n    /* \"#utility.yul\":793:796   */\n  dup5\n    /* \"#utility.yul\":785:791   */\n  dup3\n    /* \"#utility.yul\":778:782   */\n  0x20\n    /* \"#utility.yul\":770:776   */\n  dup7\n    /* \"#utility.yul\":766:783   */\n  add\n    /* \"#utility.yul\":707:797   */\n  tag_22\n  jump\t// in\ntag_38:\n    /* \"#utility.yul\":698:797   */\n  swap2\n  pop\n    /* \"#utility.yul\":521:803   */\n  pop\n    /* \"#utility.yul\":448:803   */\n  swap3\n  swap2\n  pop\n  pop\n  jump\t// out\n    /* \"#utility.yul\":809:1662   */\ntag_3:\n    /* \"#utility.yul\":908:914   */\n  0x00\n    /* \"#utility.yul\":916:922   */\n  dup1\n    /* \"#utility.yul\":965:967   */\n  0x40\n    /* \"#utility.yul\":953:962   */\n  dup4\n    /* \"#utility.yul\":944:951   */\n  dup6\n    /* \"#utility.yul\":940:963   */\n  sub\n    /* \"#utility.yul\":936:968   */\n  slt\n    /* \"#utility.yul\":933:1052   */\n  iszero\n  tag_40\n  jumpi\n    /* \"#utility.yul\":971:1050   */\n  tag_41\n  tag_42\n  jump\t// in\ntag_41:\n    /* \"#utility.yul\":933:1052   */\ntag_40:\n    /* \"#utility.yul\":1112:1113   */\n  0x00\n    /* \"#utility.yul\":1101:1110   */\n  dup4\n    /* \"#utility.yul\":1097:1114   */\n  add\n    /* \"#utility.yul\":1091:1115   */\n  mload\n    /* \"#utility.yul\":1142:1160   */\n  0xffffffffffffffff\n    /* \"#utility.yul\":1134:1140   */\n  dup2\n    /* \"#utility.yul\":1131:1161   */\n  gt\n    /* \"#utility.yul\":1128:1245   */\n  iszero\n  tag_43\n  jumpi\n    /* \"#utility.yul\":1164:1243   */\n  tag_44\n  tag_45\n  jump\t// in\ntag_44:\n    /* \"#utility.yul\":1128:1245   */\ntag_43:\n    /* \"#utility.yul\":1269:1343   */\n  tag_46\n    /* \"#utility.yul\":1335:1342   */\n  dup6\n    /* \"#utility.yul\":1326:1332   */\n  dup3\n    /* \"#utility.yul\":1315:1324   */\n  dup7\n    /* \"#utility.yul\":1311:1333   */\n  add\n    /* \"#utility.yul\":1269:1343   */\n  tag_33\n  jump\t// in\ntag_46:\n    /* \"#utility.yul\":1259:1343   */\n  swap3\n  pop\n    /* \"#utility.yul\":1062:1353   */\n  pop\n    /* \"#utility.yul\":1413:1415   */\n  0x20\n    /* \"#utility.yul\":1402:1411   */\n  dup4\n    /* \"#utility.yul\":1398:1416   */\n  add\n    /* \"#utility.yul\":1392:1417   */\n  mload\n    /* \"#utility.yul\":1444:1462   */\n  0xffffffffffffffff\n    /* \"#utility.yul\":1436:1442   */\n  dup2\n    /* \"#utility.yul\":1433:1463   */\n  gt\n    /* \"#utility.yul\":1430:1547   */\n  iszero\n  tag_47\n  jumpi\n    /* \"#utility.yul\":1466:1545   */\n  tag_48\n  tag_45\n  jump\t// in\ntag_48:\n    /* \"#utility.yul\":1430:1547   */\ntag_47:\n    /* \"#utility.yul\":1571:1645   */\n  tag_49\n    /* \"#utility.yul\":1637:1644   */\n  dup6\n    /* \"#utility.yul\":1628:1634   */\n  dup3\n    /* \"#utility.yul\":1617:1626   */\n  dup7\n    /* \"#utility.yul\":1613:1635   */\n  add\n    /* \"#utility.yul\":1571:1645   */\n  tag_33\n  jump\t// in\ntag_49:\n    /* \"#utility.yul\":1561:1645   */\n  swap2\n  pop\n    /* \"#utility.yul\":1363:1655   */\n  pop\n    /* \"#utility.yul\":809:1662   */\n  swap3\n  pop\n  swap3\n  swap1\n  pop\n  jump\t// out\n    /* \"#utility.yul\":1668:1797   */\ntag_27:\n    /* \"#utility.yul\":1702:1708   */\n  0x00\n    /* \"#utility.yul\":1729:1749   */\n  tag_51\n  tag_52\n  jump\t// in\ntag_51:\n    /* \"#utility.yul\":1719:1749   */\n  swap1\n  pop\n    /* \"#utility.yul\":1758:1791   */\n  tag_53\n    /* \"#utility.yul\":1786:1790   */\n  dup3\n    /* \"#utility.yul\":1778:1784   */\n  dup3\n    /* \"#utility.yul\":1758:1791   */\n  tag_54\n  jump\t// in\ntag_53:\n    /* \"#utility.yul\":1668:1797   */\n  swap2\n  swap1\n  pop\n  jump\t// out\n    /* \"#utility.yul\":1803:1878   */\ntag_52:\n    /* \"#utility.yul\":1836:1842   */\n  0x00\n    /* \"#utility.yul\":1869:1871   */\n  0x40\n    /* \"#utility.yul\":1863:1872   */\n  mload\n    /* \"#utility.yul\":1853:1872   */\n  swap1\n  pop\n    /* \"#utility.yul\":1803:1878   */\n  swap1\n  jump\t// out\n    /* \"#utility.yul\":1884:2192   */\ntag_26:\n    /* \"#utility.yul\":1946:1950   */\n  0x00\n    /* \"#utility.yul\":2036:2054   */\n  0xffffffffffffffff\n    /* \"#utility.yul\":2028:2034   */\n  dup3\n    /* \"#utility.yul\":2025:2055   */\n  gt\n    /* \"#utility.yul\":2022:2078   */\n  iszero\n  tag_57\n  jumpi\n    /* \"#utility.yul\":2058:2076   */\n  tag_58\n  tag_59\n  jump\t// in\ntag_58:\n    /* \"#utility.yul\":2022:2078   */\ntag_57:\n    /* \"#utility.yul\":2096:2125   */\n  tag_60\n    /* \"#utility.yul\":2118:2124   */\n  dup3\n    /* \"#utility.yul\":2096:2125   */\n  tag_61\n  jump\t// in\ntag_60:\n    /* \"#utility.yul\":2088:2125   */\n  swap1\n  pop\n    /* \"#utility.yul\":2180:2184   */\n  0x20\n    /* \"#utility.yul\":2174:2178   */\n  dup2\n    /* \"#utility.yul\":2170:2185   */\n  add\n    /* \"#utility.yul\":2162:2185   */\n  swap1\n  pop\n    /* \"#utility.yul\":1884:2192   */\n  swap2\n  swap1\n  pop\n  jump\t// out\n    /* \"#utility.yul\":2198:2505   */\ntag_32:\n    /* \"#utility.yul\":2266:2267   */\n  0x00\n    /* \"#utility.yul\":2276:2389   */\ntag_63:\n    /* \"#utility.yul\":2290:2296   */\n  dup4\n    /* \"#utility.yul\":2287:2288   */\n  dup2\n    /* \"#utility.yul\":2284:2297   */\n  lt\n    /* \"#utility.yul\":2276:2389   */\n  iszero\n  tag_65\n  jumpi\n    /* \"#utility.yul\":2375:2376   */\n  dup1\n    /* \"#utility.yul\":2370:2373   */\n  dup3\n    /* \"#utility.yul\":2366:2377   */\n  add\n    /* \"#utility.yul\":2360:2378   */\n  mload\n    /* \"#utility.yul\":2356:2357   */\n  dup2\n    /* \"#utility.yul\":2351:2354   */\n  dup5\n    /* \"#utility.yul\":2347:2358   */\n  add\n    /* \"#utility.yul\":2340:2379   */\n  mstore\n    /* \"#utility.yul\":2312:2314   */\n  0x20\n    /* \"#utility.yul\":2309:2310   */\n  dup2\n    /* \"#utility.yul\":2305:2315   */\n  add\n    /* \"#utility.yul\":2300:2315   */\n  swap1\n  pop\n    /* \"#utility.yul\":2276:2389   */\n  jump(tag_63)\ntag_65:\n    /* \"#utility.yul\":2407:2413   */\n  dup4\n    /* \"#utility.yul\":2404:2405   */\n  dup2\n    /* \"#utility.yul\":2401:2414   */\n  gt\n    /* \"#utility.yul\":2398:2499   */\n  iszero\n  tag_66\n  jumpi\n    /* \"#utility.yul\":2487:2488   */\n  0x00\n    /* \"#utility.yul\":2478:2484   */\n  dup5\n    /* \"#utility.yul\":2473:2476   */\n  dup5\n    /* \"#utility.yul\":2469:2485   */\n  add\n    /* \"#utility.yul\":2462:2489   */\n  mstore\n    /* \"#utility.yul\":2398:2499   */\ntag_66:\n    /* \"#utility.yul\":2247:2505   */\n  pop\n    /* \"#utility.yul\":2198:2505   */\n  pop\n  pop\n  pop\n  jump\t// out\n    /* \"#utility.yul\":2511:2831   */\ntag_11:\n    /* \"#utility.yul\":2555:2561   */\n  0x00\n    /* \"#utility.yul\":2592:2593   */\n  0x02\n    /* \"#utility.yul\":2586:2590   */\n  dup3\n    /* \"#utility.yul\":2582:2594   */\n  div\n    /* \"#utility.yul\":2572:2594   */\n  swap1\n  pop\n    /* \"#utility.yul\":2639:2640   */\n  0x01\n    /* \"#utility.yul\":2633:2637   */\n  dup3\n    /* \"#utility.yul\":2629:2641   */\n  and\n    /* \"#utility.yul\":2660:2678   */\n  dup1\n    /* \"#utility.yul\":2650:2731   */\n  tag_68\n  jumpi\n    /* \"#utility.yul\":2716:2720   */\n  0x7f\n    /* \"#utility.yul\":2708:2714   */\n  dup3\n    /* \"#utility.yul\":2704:2721   */\n  and\n    /* \"#utility.yul\":2694:2721   */\n  swap2\n  pop\n    /* \"#utility.yul\":2650:2731   */\ntag_68:\n    /* \"#utility.yul\":2778:2780   */\n  0x20\n    /* \"#utility.yul\":2770:2776   */\n  dup3\n    /* \"#utility.yul\":2767:2781   */\n  lt\n    /* \"#utility.yul\":2747:2765   */\n  dup2\n    /* \"#utility.yul\":2744:2782   */\n  eq\n    /* \"#utility.yul\":2741:2825   */\n  iszero\n  tag_69\n  jumpi\n    /* \"#utility.yul\":2797:2815   */\n  tag_70\n  tag_71\n  jump\t// in\ntag_70:\n    /* \"#utility.yul\":2741:2825   */\ntag_69:\n    /* \"#utility.yul\":2562:2831   */\n  pop\n    /* \"#utility.yul\":2511:2831   */\n  swap2\n  swap1\n  pop\n  jump\t// out\n    /* \"#utility.yul\":2837:3118   */\ntag_54:\n    /* \"#utility.yul\":2920:2947   */\n  tag_73\n    /* \"#utility.yul\":2942:2946   */\n  dup3\n    /* \"#utility.yul\":2920:2947   */\n  tag_61\n  jump\t// in\ntag_73:\n    /* \"#utility.yul\":2912:2918   */\n  dup2\n    /* \"#utility.yul\":2908:2948   */\n  add\n    /* \"#utility.yul\":3050:3056   */\n  dup2\n    /* \"#utility.yul\":3038:3048   */\n  dup2\n    /* \"#utility.yul\":3035:3057   */\n  lt\n    /* \"#utility.yul\":3014:3032   */\n  0xffffffffffffffff\n    /* \"#utility.yul\":3002:3012   */\n  dup3\n    /* \"#utility.yul\":2999:3033   */\n  gt\n    /* \"#utility.yul\":2996:3058   */\n  or\n    /* \"#utility.yul\":2993:3081   */\n  iszero\n  tag_74\n  jumpi\n    /* \"#utility.yul\":3061:3079   */\n  tag_75\n  tag_59\n  jump\t// in\ntag_75:\n    /* \"#utility.yul\":2993:3081   */\ntag_74:\n    /* \"#utility.yul\":3101:3111   */\n  dup1\n    /* \"#utility.yul\":3097:3099   */\n  0x40\n    /* \"#utility.yul\":3090:3112   */\n  mstore\n    /* \"#utility.yul\":2880:3118   */\n  pop\n    /* \"#utility.yul\":2837:3118   */\n  pop\n  pop\n  jump\t// out\n    /* \"#utility.yul\":3124:3304   */\ntag_71:\n    /* \"#utility.yul\":3172:3249   */\n  0x4e487b7100000000000000000000000000000000000000000000000000000000\n    /* \"#utility.yul\":3169:3170   */\n  0x00\n    /* \"#utility.yul\":3162:3250   */\n  mstore\n    /* \"#utility.yul\":3269:3273   */\n  0x22\n    /* \"#utility.yul\":3266:3267   */\n  0x04\n    /* \"#utility.yul\":3259:3274   */\n  mstore\n    /* \"#utility.yul\":3293:3297   */\n  0x24\n    /* \"#utility.yul\":3290:3291   */\n  0x00\n    /* \"#utility.yul\":3283:3298   */\n  revert\n    /* \"#utility.yul\":3310:3490   */\ntag_59:\n    /* \"#utility.yul\":3358:3435   */\n  0x4e487b7100000000000000000000000000000000000000000000000000000000\n    /* \"#utility.yul\":3355:3356   */\n  0x00\n    /* \"#utility.yul\":3348:3436   */\n  mstore\n    /* \"#utility.yul\":3455:3459   */\n  0x41\n    /* \"#utility.yul\":3452:3453   */\n  0x04\n    /* \"#utility.yul\":3445:3460   */\n  mstore\n    /* \"#utility.yul\":3479:3483   */\n  0x24\n    /* \"#utility.yul\":3476:3477   */\n  0x00\n    /* \"#utility.yul\":3469:3484   */\n  revert\n    /* \"#utility.yul\":3496:3613   */\ntag_37:\n    /* \"#utility.yul\":3605:3606   */\n  0x00\n    /* \"#utility.yul\":3602:3603   */\n  dup1\n    /* \"#utility.yul\":3595:3607   */\n  revert\n    /* \"#utility.yul\":3619:3736   */\ntag_30:\n    /* \"#utility.yul\":3728:3729   */\n  0x00\n    /* \"#utility.yul\":3725:3726   */\n  dup1\n    /* \"#utility.yul\":3718:3730   */\n  revert\n    /* \"#utility.yul\":3742:3859   */\ntag_45:\n    /* \"#utility.yul\":3851:3852   */\n  0x00\n    /* \"#utility.yul\":3848:3849   */\n  dup1\n    /* \"#utility.yul\":3841:3853   */\n  revert\n    /* \"#utility.yul\":3865:3982   */\ntag_42:\n    /* \"#utility.yul\":3974:3975   */\n  0x00\n    /* \"#utility.yul\":3971:3972   */\n  dup1\n    /* \"#utility.yul\":3964:3976   */\n  revert\n    /* \"#utility.yul\":3988:4090   */\ntag_61:\n    /* \"#utility.yul\":4029:4035   */\n  0x00\n    /* \"#utility.yul\":4080:4082   */\n  0x1f\n    /* \"#utility.yul\":4076:4083   */\n  not\n    /* \"#utility.yul\":4071:4073   */\n  0x1f\n    /* \"#utility.yul\":4064:4069   */\n  dup4\n    /* \"#utility.yul\":4060:4074   */\n  add\n    /* \"#utility.yul\":4056:4084   */\n  and\n    /* \"#utility.yul\":4046:4084   */\n  swap1\n  pop\n    /* \"#utility.yul\":3988:4090   */\n  swap2\n  swap1\n  pop\n  jump\t// out\n    /* \"cw3.sol\":74:2589  contract Token {\r... */\ntag_9:\n  dataSize(sub_0)\n  dup1\n  dataOffset(sub_0)\n  0x00\n  codecopy\n  0x00\n  return\nstop\n\nsub_0: assembly {\n        /* \"cw3.sol\":74:2589  contract Token {\r... */\n      mstore(0x40, 0x80)\n      jumpi(tag_1, lt(calldatasize, 0x04))\n      shr(0xe0, calldataload(0x00))\n      dup1\n      0x43d726d6\n      gt\n      tag_12\n      jumpi\n      dup1\n      0x43d726d6\n      eq\n      tag_7\n      jumpi\n      dup1\n      0x70a08231\n      eq\n      tag_8\n      jumpi\n      dup1\n      0x98d5fdca\n      eq\n      tag_9\n      jumpi\n      dup1\n      0xa9059cbb\n      eq\n      tag_10\n      jumpi\n      dup1\n      0xe4849b32\n      eq\n      tag_11\n      jumpi\n      jump(tag_2)\n    tag_12:\n      dup1\n      0x15070401\n      eq\n      tag_3\n      jumpi\n      dup1\n      0x17d7de7c\n      eq\n      tag_4\n      jumpi\n      dup1\n      0x18160ddd\n      eq\n      tag_5\n      jumpi\n      dup1\n      0x40c10f19\n      eq\n      tag_6\n      jumpi\n      jump(tag_2)\n    tag_1:\n      jumpi(tag_2, calldatasize)\n      stop\n    tag_2:\n      stop\n        /* \"cw3.sol\":789:882  function getSymbol() public view returns (string memory){\r... */\n    tag_3:\n      callvalue\n      dup1\n      iszero\n      tag_17\n      jumpi\n      0x00\n      dup1\n      revert\n    tag_17:\n      pop\n      tag_18\n      tag_19\n      jump\t// in\n    tag_18:\n      mload(0x40)\n      tag_20\n      swap2\n      swap1\n      tag_21\n      jump\t// in\n    tag_20:\n      mload(0x40)\n      dup1\n      swap2\n      sub\n      swap1\n      return\n        /* \"cw3.sol\":890:979  function getName() public view returns (string memory){\r... */\n    tag_4:\n      callvalue\n      dup1\n      iszero\n      tag_22\n      jumpi\n      0x00\n      dup1\n      revert\n    tag_22:\n      pop\n      tag_23\n      tag_24\n      jump\t// in\n    tag_23:\n      mload(0x40)\n      tag_25\n      swap2\n      swap1\n      tag_21\n      jump\t// in\n    tag_25:\n      mload(0x40)\n      dup1\n      swap2\n      sub\n      swap1\n      return\n        /* \"cw3.sol\":691:781  function totalSupply() public view returns (uint256) {\r... */\n    tag_5:\n      callvalue\n      dup1\n      iszero\n      tag_26\n      jumpi\n      0x00\n      dup1\n      revert\n    tag_26:\n      pop\n      tag_27\n      tag_28\n      jump\t// in\n    tag_27:\n      mload(0x40)\n      tag_29\n      swap2\n      swap1\n      tag_30\n      jump\t// in\n    tag_29:\n      mload(0x40)\n      dup1\n      swap2\n      sub\n      swap1\n      return\n        /* \"cw3.sol\":1193:1450  function mint(address to, uint256 value) external returns(bool){\r... */\n    tag_6:\n      callvalue\n      dup1\n      iszero\n      tag_31\n      jumpi\n      0x00\n      dup1\n      revert\n    tag_31:\n      pop\n      tag_32\n      0x04\n      dup1\n      calldatasize\n      sub\n      dup2\n      add\n      swap1\n      tag_33\n      swap2\n      swap1\n      tag_34\n      jump\t// in\n    tag_33:\n      tag_35\n      jump\t// in\n    tag_32:\n      mload(0x40)\n      tag_36\n      swap2\n      swap1\n      tag_37\n      jump\t// in\n    tag_36:\n      mload(0x40)\n      dup1\n      swap2\n      sub\n      swap1\n      return\n        /* \"cw3.sol\":2244:2448  function close() external payable{ // destroy contract and return wei to owner\r... */\n    tag_7:\n      tag_38\n      tag_39\n      jump\t// in\n    tag_38:\n      stop\n        /* \"cw3.sol\":1074:1185  function balanceOf(address _account) public view returns (uint256) {\r... */\n    tag_8:\n      callvalue\n      dup1\n      iszero\n      tag_40\n      jumpi\n      0x00\n      dup1\n      revert\n    tag_40:\n      pop\n      tag_41\n      0x04\n      dup1\n      calldatasize\n      sub\n      dup2\n      add\n      swap1\n      tag_42\n      swap2\n      swap1\n      tag_43\n      jump\t// in\n    tag_42:\n      tag_44\n      jump\t// in\n    tag_41:\n      mload(0x40)\n      tag_45\n      swap2\n      swap1\n      tag_30\n      jump\t// in\n    tag_45:\n      mload(0x40)\n      dup1\n      swap2\n      sub\n      swap1\n      return\n        /* \"cw3.sol\":987:1066  function getPrice() public pure returns (uint128) {\r... */\n    tag_9:\n      callvalue\n      dup1\n      iszero\n      tag_46\n      jumpi\n      0x00\n      dup1\n      revert\n    tag_46:\n      pop\n      tag_47\n      tag_48\n      jump\t// in\n    tag_47:\n      mload(0x40)\n      tag_49\n      swap2\n      swap1\n      tag_50\n      jump\t// in\n    tag_49:\n      mload(0x40)\n      dup1\n      swap2\n      sub\n      swap1\n      return\n        /* \"cw3.sol\":1458:1747  function transfer(address to, uint256 value) external returns(bool){\r... */\n    tag_10:\n      callvalue\n      dup1\n      iszero\n      tag_51\n      jumpi\n      0x00\n      dup1\n      revert\n    tag_51:\n      pop\n      tag_52\n      0x04\n      dup1\n      calldatasize\n      sub\n      dup2\n      add\n      swap1\n      tag_53\n      swap2\n      swap1\n      tag_34\n      jump\t// in\n    tag_53:\n      tag_54\n      jump\t// in\n    tag_52:\n      mload(0x40)\n      tag_55\n      swap2\n      swap1\n      tag_37\n      jump\t// in\n    tag_55:\n      mload(0x40)\n      dup1\n      swap2\n      sub\n      swap1\n      return\n        /* \"cw3.sol\":1755:2230  function sell(uint256 value) external payable returns(bool){ // user can sell tokens back to the contract for value 600\r... */\n    tag_11:\n      tag_56\n      0x04\n      dup1\n      calldatasize\n      sub\n      dup2\n      add\n      swap1\n      tag_57\n      swap2\n      swap1\n      tag_58\n      jump\t// in\n    tag_57:\n      tag_59\n      jump\t// in\n    tag_56:\n      mload(0x40)\n      tag_60\n      swap2\n      swap1\n      tag_37\n      jump\t// in\n    tag_60:\n      mload(0x40)\n      dup1\n      swap2\n      sub\n      swap1\n      return\n        /* \"cw3.sol\":789:882  function getSymbol() public view returns (string memory){\r... */\n    tag_19:\n        /* \"cw3.sol\":831:844  string memory */\n      0x60\n        /* \"cw3.sol\":863:874  tokenSymbol */\n      0x02\n        /* \"cw3.sol\":856:874  return tokenSymbol */\n      dup1\n      sload\n      tag_62\n      swap1\n      tag_63\n      jump\t// in\n    tag_62:\n      dup1\n      0x1f\n      add\n      0x20\n      dup1\n      swap2\n      div\n      mul\n      0x20\n      add\n      mload(0x40)\n      swap1\n      dup2\n      add\n      0x40\n      mstore\n      dup1\n      swap3\n      swap2\n      swap1\n      dup2\n      dup2\n      mstore\n      0x20\n      add\n      dup3\n      dup1\n      sload\n      tag_64\n      swap1\n      tag_63\n      jump\t// in\n    tag_64:\n      dup1\n      iszero\n      tag_65\n      jumpi\n      dup1\n      0x1f\n      lt\n      tag_66\n      jumpi\n      0x0100\n      dup1\n      dup4\n      sload\n      div\n      mul\n      dup4\n      mstore\n      swap2\n      0x20\n      add\n      swap2\n      jump(tag_65)\n    tag_66:\n      dup3\n      add\n      swap2\n      swap1\n      0x00\n      mstore\n      keccak256(0x00, 0x20)\n      swap1\n    tag_67:\n      dup2\n      sload\n      dup2\n      mstore\n      swap1\n      0x01\n      add\n      swap1\n      0x20\n      add\n      dup1\n      dup4\n      gt\n      tag_67\n      jumpi\n      dup3\n      swap1\n      sub\n      0x1f\n      and\n      dup3\n      add\n      swap2\n    tag_65:\n      pop\n      pop\n      pop\n      pop\n      pop\n      swap1\n      pop\n        /* \"cw3.sol\":789:882  function getSymbol() public view returns (string memory){\r... */\n      swap1\n      jump\t// out\n        /* \"cw3.sol\":890:979  function getName() public view returns (string memory){\r... */\n    tag_24:\n        /* \"cw3.sol\":930:943  string memory */\n      0x60\n        /* \"cw3.sol\":962:971  tokenName */\n      0x01\n        /* \"cw3.sol\":955:971  return tokenName */\n      dup1\n      sload\n      tag_69\n      swap1\n      tag_63\n      jump\t// in\n    tag_69:\n      dup1\n      0x1f\n      add\n      0x20\n      dup1\n      swap2\n      div\n      mul\n      0x20\n      add\n      mload(0x40)\n      swap1\n      dup2\n      add\n      0x40\n      mstore\n      dup1\n      swap3\n      swap2\n      swap1\n      dup2\n      dup2\n      mstore\n      0x20\n      add\n      dup3\n      dup1\n      sload\n      tag_70\n      swap1\n      tag_63\n      jump\t// in\n    tag_70:\n      dup1\n      iszero\n      tag_71\n      jumpi\n      dup1\n      0x1f\n      lt\n      tag_72\n      jumpi\n      0x0100\n      dup1\n      dup4\n      sload\n      div\n      mul\n      dup4\n      mstore\n      swap2\n      0x20\n      add\n      swap2\n      jump(tag_71)\n    tag_72:\n      dup3\n      add\n      swap2\n      swap1\n      0x00\n      mstore\n      keccak256(0x00, 0x20)\n      swap1\n    tag_73:\n      dup2\n      sload\n      dup2\n      mstore\n      swap1\n      0x01\n      add\n      swap1\n      0x20\n      add\n      dup1\n      dup4\n      gt\n      tag_73\n      jumpi\n      dup3\n      swap1\n      sub\n      0x1f\n      and\n      dup3\n      add\n      swap2\n    tag_71:\n      pop\n      pop\n      pop\n      pop\n      pop\n      swap1\n      pop\n        /* \"cw3.sol\":890:979  function getName() public view returns (string memory){\r... */\n      swap1\n      jump\t// out\n        /* \"cw3.sol\":691:781  function totalSupply() public view returns (uint256) {\r... */\n    tag_28:\n        /* \"cw3.sol\":735:742  uint256 */\n      0x00\n        /* \"cw3.sol\":762:773  circulating */\n      sload(0x03)\n        /* \"cw3.sol\":755:773  return circulating */\n      swap1\n      pop\n        /* \"cw3.sol\":691:781  function totalSupply() public view returns (uint256) {\r... */\n      swap1\n      jump\t// out\n        /* \"cw3.sol\":1193:1450  function mint(address to, uint256 value) external returns(bool){\r... */\n    tag_35:\n        /* \"cw3.sol\":1251:1255  bool */\n      0x00\n        /* \"cw3.sol\":1289:1294  owner */\n      dup1\n      0x00\n      swap1\n      sload\n      swap1\n      0x0100\n      exp\n      swap1\n      div\n      0xffffffffffffffffffffffffffffffffffffffff\n      and\n        /* \"cw3.sol\":1275:1294  msg.sender == owner */\n      0xffffffffffffffffffffffffffffffffffffffff\n      and\n        /* \"cw3.sol\":1275:1285  msg.sender */\n      caller\n        /* \"cw3.sol\":1275:1294  msg.sender == owner */\n      0xffffffffffffffffffffffffffffffffffffffff\n      and\n      eq\n        /* \"cw3.sol\":1267:1326  require(msg.sender == owner, \"Only owner can mint tokens.\") */\n      tag_76\n      jumpi\n      mload(0x40)\n      0x08c379a000000000000000000000000000000000000000000000000000000000\n      dup2\n      mstore\n      0x04\n      add\n      tag_77\n      swap1\n      tag_78\n      jump\t// in\n    tag_77:\n      mload(0x40)\n      dup1\n      swap2\n      sub\n      swap1\n      revert\n    tag_76:\n        /* \"cw3.sol\":1352:1357  value */\n      dup2\n        /* \"cw3.sol\":1337:1348  circulating */\n      0x03\n      0x00\n        /* \"cw3.sol\":1337:1357  circulating += value */\n      dup3\n      dup3\n      sload\n      tag_79\n      swap2\n      swap1\n      tag_80\n      jump\t// in\n    tag_79:\n      swap3\n      pop\n      pop\n      dup2\n      swap1\n      sstore\n      pop\n        /* \"cw3.sol\":1384:1389  value */\n      dup2\n        /* \"cw3.sol\":1368:1376  balances */\n      0x04\n        /* \"cw3.sol\":1368:1380  balances[to] */\n      0x00\n        /* \"cw3.sol\":1377:1379  to */\n      dup6\n        /* \"cw3.sol\":1368:1380  balances[to] */\n      0xffffffffffffffffffffffffffffffffffffffff\n      and\n      0xffffffffffffffffffffffffffffffffffffffff\n      and\n      dup2\n      mstore\n      0x20\n      add\n      swap1\n      dup2\n      mstore\n      0x20\n      add\n      0x00\n      keccak256\n      0x00\n        /* \"cw3.sol\":1368:1389  balances[to] += value */\n      dup3\n      dup3\n      sload\n      tag_81\n      swap2\n      swap1\n      tag_80\n      jump\t// in\n    tag_81:\n      swap3\n      pop\n      pop\n      dup2\n      swap1\n      sstore\n      pop\n        /* \"cw3.sol\":1414:1419  value */\n      dup2\n        /* \"cw3.sol\":1410:1412  to */\n      dup4\n        /* \"cw3.sol\":1405:1420  Mint(to, value) */\n      0xffffffffffffffffffffffffffffffffffffffff\n      and\n      0x0f6798a560793a54c3bcfe86a93cde1e73087d944c0ea20544137d4121396885\n      mload(0x40)\n      mload(0x40)\n      dup1\n      swap2\n      sub\n      swap1\n      log3\n        /* \"cw3.sol\":1438:1442  true */\n      0x01\n        /* \"cw3.sol\":1431:1442  return true */\n      swap1\n      pop\n        /* \"cw3.sol\":1193:1450  function mint(address to, uint256 value) external returns(bool){\r... */\n      swap3\n      swap2\n      pop\n      pop\n      jump\t// out\n        /* \"cw3.sol\":2244:2448  function close() external payable{ // destroy contract and return wei to owner\r... */\n    tag_39:\n        /* \"cw3.sol\":2354:2359  owner */\n      0x00\n      dup1\n      sload\n      swap1\n      0x0100\n      exp\n      swap1\n      div\n      0xffffffffffffffffffffffffffffffffffffffff\n      and\n        /* \"cw3.sol\":2340:2359  msg.sender == owner */\n      0xffffffffffffffffffffffffffffffffffffffff\n      and\n        /* \"cw3.sol\":2340:2350  msg.sender */\n      caller\n        /* \"cw3.sol\":2340:2359  msg.sender == owner */\n      0xffffffffffffffffffffffffffffffffffffffff\n      and\n      eq\n        /* \"cw3.sol\":2332:2398  require(msg.sender == owner, \"Only owner can call this function.\") */\n      tag_83\n      jumpi\n      mload(0x40)\n      0x08c379a000000000000000000000000000000000000000000000000000000000\n      dup2\n      mstore\n      0x04\n      add\n      tag_84\n      swap1\n      tag_85\n      jump\t// in\n    tag_84:\n      mload(0x40)\n      dup1\n      swap2\n      sub\n      swap1\n      revert\n    tag_83:\n        /* \"cw3.sol\":2431:2436  owner */\n      0x00\n      dup1\n      sload\n      swap1\n      0x0100\n      exp\n      swap1\n      div\n      0xffffffffffffffffffffffffffffffffffffffff\n      and\n        /* \"cw3.sol\":2409:2438  selfdestruct(payable (owner)) */\n      0xffffffffffffffffffffffffffffffffffffffff\n      and\n      selfdestruct\n        /* \"cw3.sol\":1074:1185  function balanceOf(address _account) public view returns (uint256) {\r... */\n    tag_44:\n        /* \"cw3.sol\":1132:1139  uint256 */\n      0x00\n        /* \"cw3.sol\":1159:1167  balances */\n      0x04\n        /* \"cw3.sol\":1159:1177  balances[_account] */\n      0x00\n        /* \"cw3.sol\":1168:1176  _account */\n      dup4\n        /* \"cw3.sol\":1159:1177  balances[_account] */\n      0xffffffffffffffffffffffffffffffffffffffff\n      and\n      0xffffffffffffffffffffffffffffffffffffffff\n      and\n      dup2\n      mstore\n      0x20\n      add\n      swap1\n      dup2\n      mstore\n      0x20\n      add\n      0x00\n      keccak256\n      sload\n        /* \"cw3.sol\":1152:1177  return balances[_account] */\n      swap1\n      pop\n        /* \"cw3.sol\":1074:1185  function balanceOf(address _account) public view returns (uint256) {\r... */\n      swap2\n      swap1\n      pop\n      jump\t// out\n        /* \"cw3.sol\":987:1066  function getPrice() public pure returns (uint128) {\r... */\n    tag_48:\n        /* \"cw3.sol\":1028:1035  uint128 */\n      0x00\n        /* \"cw3.sol\":1055:1058  600 */\n      0x0258\n        /* \"cw3.sol\":1048:1058  return 600 */\n      swap1\n      pop\n        /* \"cw3.sol\":987:1066  function getPrice() public pure returns (uint128) {\r... */\n      swap1\n      jump\t// out\n        /* \"cw3.sol\":1458:1747  function transfer(address to, uint256 value) external returns(bool){\r... */\n    tag_54:\n        /* \"cw3.sol\":1520:1524  bool */\n      0x00\n        /* \"cw3.sol\":1569:1574  value */\n      dup2\n        /* \"cw3.sol\":1546:1554  balances */\n      0x04\n        /* \"cw3.sol\":1546:1566  balances[msg.sender] */\n      0x00\n        /* \"cw3.sol\":1555:1565  msg.sender */\n      caller\n        /* \"cw3.sol\":1546:1566  balances[msg.sender] */\n      0xffffffffffffffffffffffffffffffffffffffff\n      and\n      0xffffffffffffffffffffffffffffffffffffffff\n      and\n      dup2\n      mstore\n      0x20\n      add\n      swap1\n      dup2\n      mstore\n      0x20\n      add\n      0x00\n      keccak256\n      sload\n        /* \"cw3.sol\":1546:1574  balances[msg.sender] < value */\n      lt\n        /* \"cw3.sol\":1544:1575  !(balances[msg.sender] < value) */\n      iszero\n        /* \"cw3.sol\":1536:1598  require(!(balances[msg.sender] < value), \"Insefficent funds!\") */\n      tag_89\n      jumpi\n      mload(0x40)\n      0x08c379a000000000000000000000000000000000000000000000000000000000\n      dup2\n      mstore\n      0x04\n      add\n      tag_90\n      swap1\n      tag_91\n      jump\t// in\n    tag_90:\n      mload(0x40)\n      dup1\n      swap2\n      sub\n      swap1\n      revert\n    tag_89:\n        /* \"cw3.sol\":1633:1638  value */\n      dup2\n        /* \"cw3.sol\":1609:1617  balances */\n      0x04\n        /* \"cw3.sol\":1609:1629  balances[msg.sender] */\n      0x00\n        /* \"cw3.sol\":1618:1628  msg.sender */\n      caller\n        /* \"cw3.sol\":1609:1629  balances[msg.sender] */\n      0xffffffffffffffffffffffffffffffffffffffff\n      and\n      0xffffffffffffffffffffffffffffffffffffffff\n      and\n      dup2\n      mstore\n      0x20\n      add\n      swap1\n      dup2\n      mstore\n      0x20\n      add\n      0x00\n      keccak256\n      0x00\n        /* \"cw3.sol\":1609:1638  balances[msg.sender] -= value */\n      dup3\n      dup3\n      sload\n      tag_92\n      swap2\n      swap1\n      tag_93\n      jump\t// in\n    tag_92:\n      swap3\n      pop\n      pop\n      dup2\n      swap1\n      sstore\n      pop\n        /* \"cw3.sol\":1665:1670  value */\n      dup2\n        /* \"cw3.sol\":1649:1657  balances */\n      0x04\n        /* \"cw3.sol\":1649:1661  balances[to] */\n      0x00\n        /* \"cw3.sol\":1658:1660  to */\n      dup6\n        /* \"cw3.sol\":1649:1661  balances[to] */\n      0xffffffffffffffffffffffffffffffffffffffff\n      and\n      0xffffffffffffffffffffffffffffffffffffffff\n      and\n      dup2\n      mstore\n      0x20\n      add\n      swap1\n      dup2\n      mstore\n      0x20\n      add\n      0x00\n      keccak256\n      0x00\n        /* \"cw3.sol\":1649:1670  balances[to] += value */\n      dup3\n      dup3\n      sload\n      tag_94\n      swap2\n      swap1\n      tag_80\n      jump\t// in\n    tag_94:\n      swap3\n      pop\n      pop\n      dup2\n      swap1\n      sstore\n      pop\n        /* \"cw3.sol\":1711:1716  value */\n      dup2\n        /* \"cw3.sol\":1707:1709  to */\n      dup4\n        /* \"cw3.sol\":1686:1717  Transfer(msg.sender, to, value) */\n      0xffffffffffffffffffffffffffffffffffffffff\n      and\n        /* \"cw3.sol\":1695:1705  msg.sender */\n      caller\n        /* \"cw3.sol\":1686:1717  Transfer(msg.sender, to, value) */\n      0xffffffffffffffffffffffffffffffffffffffff\n      and\n      0xddf252ad1be2c89b69c2b068fc378daa952ba7f163c4a11628f55a4df523b3ef\n      mload(0x40)\n      mload(0x40)\n      dup1\n      swap2\n      sub\n      swap1\n      log4\n        /* \"cw3.sol\":1735:1739  true */\n      0x01\n        /* \"cw3.sol\":1728:1739  return true */\n      swap1\n      pop\n        /* \"cw3.sol\":1458:1747  function transfer(address to, uint256 value) external returns(bool){\r... */\n      swap3\n      swap2\n      pop\n      pop\n      jump\t// out\n        /* \"cw3.sol\":1755:2230  function sell(uint256 value) external payable returns(bool){ // user can sell tokens back to the contract for value 600\r... */\n    tag_59:\n        /* \"cw3.sol\":1809:1813  bool */\n      0x00\n        /* \"cw3.sol\":1917:1922  value */\n      dup2\n        /* \"cw3.sol\":1894:1902  balances */\n      0x04\n        /* \"cw3.sol\":1894:1914  balances[msg.sender] */\n      0x00\n        /* \"cw3.sol\":1903:1913  msg.sender */\n      caller\n        /* \"cw3.sol\":1894:1914  balances[msg.sender] */\n      0xffffffffffffffffffffffffffffffffffffffff\n      and\n      0xffffffffffffffffffffffffffffffffffffffff\n      and\n      dup2\n      mstore\n      0x20\n      add\n      swap1\n      dup2\n      mstore\n      0x20\n      add\n      0x00\n      keccak256\n      sload\n        /* \"cw3.sol\":1894:1922  balances[msg.sender] < value */\n      lt\n        /* \"cw3.sol\":1892:1923  !(balances[msg.sender] < value) */\n      iszero\n        /* \"cw3.sol\":1884:1947  require(!(balances[msg.sender] < value), \"Insefficient funds!\") */\n      tag_96\n      jumpi\n      mload(0x40)\n      0x08c379a000000000000000000000000000000000000000000000000000000000\n      dup2\n      mstore\n      0x04\n      add\n      tag_97\n      swap1\n      tag_98\n      jump\t// in\n    tag_97:\n      mload(0x40)\n      dup1\n      swap2\n      sub\n      swap1\n      revert\n    tag_96:\n        /* \"cw3.sol\":1996:2001  value */\n      dup2\n        /* \"cw3.sol\":1992:1995  600 */\n      0x0258\n        /* \"cw3.sol\":1992:2001  600*value */\n      tag_99\n      swap2\n      swap1\n      tag_100\n      jump\t// in\n    tag_99:\n        /* \"cw3.sol\":1968:1989  address(this).balance */\n      selfbalance\n        /* \"cw3.sol\":1968:2001  address(this).balance < 600*value */\n      lt\n        /* \"cw3.sol\":1966:2002  !(address(this).balance < 600*value) */\n      iszero\n        /* \"cw3.sol\":1958:2029  require(!(address(this).balance < 600*value), \"Not enough Eth to sell\") */\n      tag_101\n      jumpi\n      mload(0x40)\n      0x08c379a000000000000000000000000000000000000000000000000000000000\n      dup2\n      mstore\n      0x04\n      add\n      tag_102\n      swap1\n      tag_103\n      jump\t// in\n    tag_102:\n      mload(0x40)\n      dup1\n      swap2\n      sub\n      swap1\n      revert\n    tag_101:\n        /* \"cw3.sol\":2064:2069  value */\n      dup2\n        /* \"cw3.sol\":2040:2048  balances */\n      0x04\n        /* \"cw3.sol\":2040:2060  balances[msg.sender] */\n      0x00\n        /* \"cw3.sol\":2049:2059  msg.sender */\n      caller\n        /* \"cw3.sol\":2040:2060  balances[msg.sender] */\n      0xffffffffffffffffffffffffffffffffffffffff\n      and\n      0xffffffffffffffffffffffffffffffffffffffff\n      and\n      dup2\n      mstore\n      0x20\n      add\n      swap1\n      dup2\n      mstore\n      0x20\n      add\n      0x00\n      keccak256\n      0x00\n        /* \"cw3.sol\":2040:2069  balances[msg.sender] -= value */\n      dup3\n      dup3\n      sload\n      tag_104\n      swap2\n      swap1\n      tag_93\n      jump\t// in\n    tag_104:\n      swap3\n      pop\n      pop\n      dup2\n      swap1\n      sstore\n      pop\n        /* \"cw3.sol\":2095:2100  value */\n      dup2\n        /* \"cw3.sol\":2080:2091  circulating */\n      0x03\n      0x00\n        /* \"cw3.sol\":2080:2100  circulating -= value */\n      dup3\n      dup3\n      sload\n      tag_105\n      swap2\n      swap1\n      tag_93\n      jump\t// in\n    tag_105:\n      swap3\n      pop\n      pop\n      dup2\n      swap1\n      sstore\n      pop\n        /* \"cw3.sol\":2133:2138  value */\n      dup2\n        /* \"cw3.sol\":2121:2131  msg.sender */\n      caller\n        /* \"cw3.sol\":2116:2139  Sell(msg.sender, value) */\n      0xffffffffffffffffffffffffffffffffffffffff\n      and\n      0x5e5e995ce3133561afceaa51a9a154d5db228cd7525d34df5185582c18d3df09\n      mload(0x40)\n      mload(0x40)\n      dup1\n      swap2\n      sub\n      swap1\n      log3\n        /* \"cw3.sol\":2150:2159  bool sent */\n      0x00\n        /* \"cw3.sol\":2170:2180  msg.sender */\n      caller\n        /* \"cw3.sol\":2162:2186  payable(msg.sender).send */\n      0xffffffffffffffffffffffffffffffffffffffff\n      and\n        /* \"cw3.sol\":2162:2197  payable(msg.sender).send(600*value) */\n      0x08fc\n        /* \"cw3.sol\":2191:2196  value */\n      dup5\n        /* \"cw3.sol\":2187:2190  600 */\n      0x0258\n        /* \"cw3.sol\":2187:2196  600*value */\n      tag_106\n      swap2\n      swap1\n      tag_100\n      jump\t// in\n    tag_106:\n        /* \"cw3.sol\":2162:2197  payable(msg.sender).send(600*value) */\n      swap1\n      dup2\n      iszero\n      mul\n      swap1\n      mload(0x40)\n      0x00\n      mload(0x40)\n      dup1\n      dup4\n      sub\n      dup2\n      dup6\n      dup9\n      dup9\n      call\n      swap4\n      pop\n      pop\n      pop\n      pop\n        /* \"cw3.sol\":2150:2197  bool sent = payable(msg.sender).send(600*value) */\n      swap1\n      pop\n        /* \"cw3.sol\":2218:2222  sent */\n      dup1\n        /* \"cw3.sol\":2211:2222  return sent */\n      swap2\n      pop\n      pop\n        /* \"cw3.sol\":1755:2230  function sell(uint256 value) external payable returns(bool){ // user can sell tokens back to the contract for value 600\r... */\n      swap2\n      swap1\n      pop\n      jump\t// out\n        /* \"#utility.yul\":7:146   */\n    tag_109:\n        /* \"#utility.yul\":53:58   */\n      0x00\n        /* \"#utility.yul\":91:97   */\n      dup2\n        /* \"#utility.yul\":78:98   */\n      calldataload\n        /* \"#utility.yul\":69:98   */\n      swap1\n      pop\n        /* \"#utility.yul\":107:140   */\n      tag_111\n        /* \"#utility.yul\":134:139   */\n      dup2\n        /* \"#utility.yul\":107:140   */\n      tag_112\n      jump\t// in\n    tag_111:\n        /* \"#utility.yul\":7:146   */\n      swap3\n      swap2\n      pop\n      pop\n      jump\t// out\n        /* \"#utility.yul\":152:291   */\n    tag_113:\n        /* \"#utility.yul\":198:203   */\n      0x00\n        /* \"#utility.yul\":236:242   */\n      dup2\n        /* \"#utility.yul\":223:243   */\n      calldataload\n        /* \"#utility.yul\":214:243   */\n      swap1\n      pop\n        /* \"#utility.yul\":252:285   */\n      tag_115\n        /* \"#utility.yul\":279:284   */\n      dup2\n        /* \"#utility.yul\":252:285   */\n      tag_116\n      jump\t// in\n    tag_115:\n        /* \"#utility.yul\":152:291   */\n      swap3\n      swap2\n      pop\n      pop\n      jump\t// out\n        /* \"#utility.yul\":297:626   */\n    tag_43:\n        /* \"#utility.yul\":356:362   */\n      0x00\n        /* \"#utility.yul\":405:407   */\n      0x20\n        /* \"#utility.yul\":393:402   */\n      dup3\n        /* \"#utility.yul\":384:391   */\n      dup5\n        /* \"#utility.yul\":380:403   */\n      sub\n        /* \"#utility.yul\":376:408   */\n      slt\n        /* \"#utility.yul\":373:492   */\n      iszero\n      tag_118\n      jumpi\n        /* \"#utility.yul\":411:490   */\n      tag_119\n      tag_120\n      jump\t// in\n    tag_119:\n        /* \"#utility.yul\":373:492   */\n    tag_118:\n        /* \"#utility.yul\":531:532   */\n      0x00\n        /* \"#utility.yul\":556:609   */\n      tag_121\n        /* \"#utility.yul\":601:608   */\n      dup5\n        /* \"#utility.yul\":592:598   */\n      dup3\n        /* \"#utility.yul\":581:590   */\n      dup6\n        /* \"#utility.yul\":577:599   */\n      add\n        /* \"#utility.yul\":556:609   */\n      tag_109\n      jump\t// in\n    tag_121:\n        /* \"#utility.yul\":546:609   */\n      swap2\n      pop\n        /* \"#utility.yul\":502:619   */\n      pop\n        /* \"#utility.yul\":297:626   */\n      swap3\n      swap2\n      pop\n      pop\n      jump\t// out\n        /* \"#utility.yul\":632:1106   */\n    tag_34:\n        /* \"#utility.yul\":700:706   */\n      0x00\n        /* \"#utility.yul\":708:714   */\n      dup1\n        /* \"#utility.yul\":757:759   */\n      0x40\n        /* \"#utility.yul\":745:754   */\n      dup4\n        /* \"#utility.yul\":736:743   */\n      dup6\n        /* \"#utility.yul\":732:755   */\n      sub\n        /* \"#utility.yul\":728:760   */\n      slt\n        /* \"#utility.yul\":725:844   */\n      iszero\n      tag_123\n      jumpi\n        /* \"#utility.yul\":763:842   */\n      tag_124\n      tag_120\n      jump\t// in\n    tag_124:\n        /* \"#utility.yul\":725:844   */\n    tag_123:\n        /* \"#utility.yul\":883:884   */\n      0x00\n        /* \"#utility.yul\":908:961   */\n      tag_125\n        /* \"#utility.yul\":953:960   */\n      dup6\n        /* \"#utility.yul\":944:950   */\n      dup3\n        /* \"#utility.yul\":933:942   */\n      dup7\n        /* \"#utility.yul\":929:951   */\n      add\n        /* \"#utility.yul\":908:961   */\n      tag_109\n      jump\t// in\n    tag_125:\n        /* \"#utility.yul\":898:961   */\n      swap3\n      pop\n        /* \"#utility.yul\":854:971   */\n      pop\n        /* \"#utility.yul\":1010:1012   */\n      0x20\n        /* \"#utility.yul\":1036:1089   */\n      tag_126\n        /* \"#utility.yul\":1081:1088   */\n      dup6\n        /* \"#utility.yul\":1072:1078   */\n      dup3\n        /* \"#utility.yul\":1061:1070   */\n      dup7\n        /* \"#utility.yul\":1057:1079   */\n      add\n        /* \"#utility.yul\":1036:1089   */\n      tag_113\n      jump\t// in\n    tag_126:\n        /* \"#utility.yul\":1026:1089   */\n      swap2\n      pop\n        /* \"#utility.yul\":981:1099   */\n      pop\n        /* \"#utility.yul\":632:1106   */\n      swap3\n      pop\n      swap3\n      swap1\n      pop\n      jump\t// out\n        /* \"#utility.yul\":1112:1441   */\n    tag_58:\n        /* \"#utility.yul\":1171:1177   */\n      0x00\n        /* \"#utility.yul\":1220:1222   */\n      0x20\n        /* \"#utility.yul\":1208:1217   */\n      dup3\n        /* \"#utility.yul\":1199:1206   */\n      dup5\n        /* \"#utility.yul\":1195:1218   */\n      sub\n        /* \"#utility.yul\":1191:1223   */\n      slt\n        /* \"#utility.yul\":1188:1307   */\n      iszero\n      tag_128\n      jumpi\n        /* \"#utility.yul\":1226:1305   */\n      tag_129\n      tag_120\n      jump\t// in\n    tag_129:\n        /* \"#utility.yul\":1188:1307   */\n    tag_128:\n        /* \"#utility.yul\":1346:1347   */\n      0x00\n        /* \"#utility.yul\":1371:1424   */\n      tag_130\n        /* \"#utility.yul\":1416:1423   */\n      dup5\n        /* \"#utility.yul\":1407:1413   */\n      dup3\n        /* \"#utility.yul\":1396:1405   */\n      dup6\n        /* \"#utility.yul\":1392:1414   */\n      add\n        /* \"#utility.yul\":1371:1424   */\n      tag_113\n      jump\t// in\n    tag_130:\n        /* \"#utility.yul\":1361:1424   */\n      swap2\n      pop\n        /* \"#utility.yul\":1317:1434   */\n      pop\n        /* \"#utility.yul\":1112:1441   */\n      swap3\n      swap2\n      pop\n      pop\n      jump\t// out\n        /* \"#utility.yul\":1447:1556   */\n    tag_131:\n        /* \"#utility.yul\":1528:1549   */\n      tag_133\n        /* \"#utility.yul\":1543:1548   */\n      dup2\n        /* \"#utility.yul\":1528:1549   */\n      tag_134\n      jump\t// in\n    tag_133:\n        /* \"#utility.yul\":1523:1526   */\n      dup3\n        /* \"#utility.yul\":1516:1550   */\n      mstore\n        /* \"#utility.yul\":1447:1556   */\n      pop\n      pop\n      jump\t// out\n        /* \"#utility.yul\":1562:1926   */\n    tag_135:\n        /* \"#utility.yul\":1650:1653   */\n      0x00\n        /* \"#utility.yul\":1678:1717   */\n      tag_137\n        /* \"#utility.yul\":1711:1716   */\n      dup3\n        /* \"#utility.yul\":1678:1717   */\n      tag_138\n      jump\t// in\n    tag_137:\n        /* \"#utility.yul\":1733:1804   */\n      tag_139\n        /* \"#utility.yul\":1797:1803   */\n      dup2\n        /* \"#utility.yul\":1792:1795   */\n      dup6\n        /* \"#utility.yul\":1733:1804   */\n      tag_140\n      jump\t// in\n    tag_139:\n        /* \"#utility.yul\":1726:1804   */\n      swap4\n      pop\n        /* \"#utility.yul\":1813:1865   */\n      tag_141\n        /* \"#utility.yul\":1858:1864   */\n      dup2\n        /* \"#utility.yul\":1853:1856   */\n      dup6\n        /* \"#utility.yul\":1846:1850   */\n      0x20\n        /* \"#utility.yul\":1839:1844   */\n      dup7\n        /* \"#utility.yul\":1835:1851   */\n      add\n        /* \"#utility.yul\":1813:1865   */\n      tag_142\n      jump\t// in\n    tag_141:\n        /* \"#utility.yul\":1890:1919   */\n      tag_143\n        /* \"#utility.yul\":1912:1918   */\n      dup2\n        /* \"#utility.yul\":1890:1919   */\n      tag_144\n      jump\t// in\n    tag_143:\n        /* \"#utility.yul\":1885:1888   */\n      dup5\n        /* \"#utility.yul\":1881:1920   */\n      add\n        /* \"#utility.yul\":1874:1920   */\n      swap2\n      pop\n        /* \"#utility.yul\":1654:1926   */\n      pop\n        /* \"#utility.yul\":1562:1926   */\n      swap3\n      swap2\n      pop\n      pop\n      jump\t// out\n        /* \"#utility.yul\":1932:2298   */\n    tag_145:\n        /* \"#utility.yul\":2074:2077   */\n      0x00\n        /* \"#utility.yul\":2095:2162   */\n      tag_147\n        /* \"#utility.yul\":2159:2161   */\n      0x22\n        /* \"#utility.yul\":2154:2157   */\n      dup4\n        /* \"#utility.yul\":2095:2162   */\n      tag_140\n      jump\t// in\n    tag_147:\n        /* \"#utility.yul\":2088:2162   */\n      swap2\n      pop\n        /* \"#utility.yul\":2171:2264   */\n      tag_148\n        /* \"#utility.yul\":2260:2263   */\n      dup3\n        /* \"#utility.yul\":2171:2264   */\n      tag_149\n      jump\t// in\n    tag_148:\n        /* \"#utility.yul\":2289:2291   */\n      0x40\n        /* \"#utility.yul\":2284:2287   */\n      dup3\n        /* \"#utility.yul\":2280:2292   */\n      add\n        /* \"#utility.yul\":2273:2292   */\n      swap1\n      pop\n        /* \"#utility.yul\":1932:2298   */\n      swap2\n      swap1\n      pop\n      jump\t// out\n        /* \"#utility.yul\":2304:2670   */\n    tag_150:\n        /* \"#utility.yul\":2446:2449   */\n      0x00\n        /* \"#utility.yul\":2467:2534   */\n      tag_152\n        /* \"#utility.yul\":2531:2533   */\n      0x16\n        /* \"#utility.yul\":2526:2529   */\n      dup4\n        /* \"#utility.yul\":2467:2534   */\n      tag_140\n      jump\t// in\n    tag_152:\n        /* \"#utility.yul\":2460:2534   */\n      swap2\n      pop\n        /* \"#utility.yul\":2543:2636   */\n      tag_153\n        /* \"#utility.yul\":2632:2635   */\n      dup3\n        /* \"#utility.yul\":2543:2636   */\n      tag_154\n      jump\t// in\n    tag_153:\n        /* \"#utility.yul\":2661:2663   */\n      0x20\n        /* \"#utility.yul\":2656:2659   */\n      dup3\n        /* \"#utility.yul\":2652:2664   */\n      add\n        /* \"#utility.yul\":2645:2664   */\n      swap1\n      pop\n        /* \"#utility.yul\":2304:2670   */\n      swap2\n      swap1\n      pop\n      jump\t// out\n        /* \"#utility.yul\":2676:3042   */\n    tag_155:\n        /* \"#utility.yul\":2818:2821   */\n      0x00\n        /* \"#utility.yul\":2839:2906   */\n      tag_157\n        /* \"#utility.yul\":2903:2905   */\n      0x1b\n        /* \"#utility.yul\":2898:2901   */\n      dup4\n        /* \"#utility.yul\":2839:2906   */\n      tag_140\n      jump\t// in\n    tag_157:\n        /* \"#utility.yul\":2832:2906   */\n      swap2\n      pop\n        /* \"#utility.yul\":2915:3008   */\n      tag_158\n        /* \"#utility.yul\":3004:3007   */\n      dup3\n        /* \"#utility.yul\":2915:3008   */\n      tag_159\n      jump\t// in\n    tag_158:\n        /* \"#utility.yul\":3033:3035   */\n      0x20\n        /* \"#utility.yul\":3028:3031   */\n      dup3\n        /* \"#utility.yul\":3024:3036   */\n      add\n        /* \"#utility.yul\":3017:3036   */\n      swap1\n      pop\n        /* \"#utility.yul\":2676:3042   */\n      swap2\n      swap1\n      pop\n      jump\t// out\n        /* \"#utility.yul\":3048:3414   */\n    tag_160:\n        /* \"#utility.yul\":3190:3193   */\n      0x00\n        /* \"#utility.yul\":3211:3278   */\n      tag_162\n        /* \"#utility.yul\":3275:3277   */\n      0x13\n        /* \"#utility.yul\":3270:3273   */\n      dup4\n        /* \"#utility.yul\":3211:3278   */\n      tag_140\n      jump\t// in\n    tag_162:\n        /* \"#utility.yul\":3204:3278   */\n      swap2\n      pop\n        /* \"#utility.yul\":3287:3380   */\n      tag_163\n        /* \"#utility.yul\":3376:3379   */\n      dup3\n        /* \"#utility.yul\":3287:3380   */\n      tag_164\n      jump\t// in\n    tag_163:\n        /* \"#utility.yul\":3405:3407   */\n      0x20\n        /* \"#utility.yul\":3400:3403   */\n      dup3\n        /* \"#utility.yul\":3396:3408   */\n      add\n        /* \"#utility.yul\":3389:3408   */\n      swap1\n      pop\n        /* \"#utility.yul\":3048:3414   */\n      swap2\n      swap1\n      pop\n      jump\t// out\n        /* \"#utility.yul\":3420:3786   */\n    tag_165:\n        /* \"#utility.yul\":3562:3565   */\n      0x00\n        /* \"#utility.yul\":3583:3650   */\n      tag_167\n        /* \"#utility.yul\":3647:3649   */\n      0x12\n        /* \"#utility.yul\":3642:3645   */\n      dup4\n        /* \"#utility.yul\":3583:3650   */\n      tag_140\n      jump\t// in\n    tag_167:\n        /* \"#utility.yul\":3576:3650   */\n      swap2\n      pop\n        /* \"#utility.yul\":3659:3752   */\n      tag_168\n        /* \"#utility.yul\":3748:3751   */\n      dup3\n        /* \"#utility.yul\":3659:3752   */\n      tag_169\n      jump\t// in\n    tag_168:\n        /* \"#utility.yul\":3777:3779   */\n      0x20\n        /* \"#utility.yul\":3772:3775   */\n      dup3\n        /* \"#utility.yul\":3768:3780   */\n      add\n        /* \"#utility.yul\":3761:3780   */\n      swap1\n      pop\n        /* \"#utility.yul\":3420:3786   */\n      swap2\n      swap1\n      pop\n      jump\t// out\n        /* \"#utility.yul\":3792:3910   */\n    tag_170:\n        /* \"#utility.yul\":3879:3903   */\n      tag_172\n        /* \"#utility.yul\":3897:3902   */\n      dup2\n        /* \"#utility.yul\":3879:3903   */\n      tag_173\n      jump\t// in\n    tag_172:\n        /* \"#utility.yul\":3874:3877   */\n      dup3\n        /* \"#utility.yul\":3867:3904   */\n      mstore\n        /* \"#utility.yul\":3792:3910   */\n      pop\n      pop\n      jump\t// out\n        /* \"#utility.yul\":3916:4034   */\n    tag_174:\n        /* \"#utility.yul\":4003:4027   */\n      tag_176\n        /* \"#utility.yul\":4021:4026   */\n      dup2\n        /* \"#utility.yul\":4003:4027   */\n      tag_177\n      jump\t// in\n    tag_176:\n        /* \"#utility.yul\":3998:4001   */\n      dup3\n        /* \"#utility.yul\":3991:4028   */\n      mstore\n        /* \"#utility.yul\":3916:4034   */\n      pop\n      pop\n      jump\t// out\n        /* \"#utility.yul\":4040:4250   */\n    tag_37:\n        /* \"#utility.yul\":4127:4131   */\n      0x00\n        /* \"#utility.yul\":4165:4167   */\n      0x20\n        /* \"#utility.yul\":4154:4163   */\n      dup3\n        /* \"#utility.yul\":4150:4168   */\n      add\n        /* \"#utility.yul\":4142:4168   */\n      swap1\n      pop\n        /* \"#utility.yul\":4178:4243   */\n      tag_179\n        /* \"#utility.yul\":4240:4241   */\n      0x00\n        /* \"#utility.yul\":4229:4238   */\n      dup4\n        /* \"#utility.yul\":4225:4242   */\n      add\n        /* \"#utility.yul\":4216:4222   */\n      dup5\n        /* \"#utility.yul\":4178:4243   */\n      tag_131\n      jump\t// in\n    tag_179:\n        /* \"#utility.yul\":4040:4250   */\n      swap3\n      swap2\n      pop\n      pop\n      jump\t// out\n        /* \"#utility.yul\":4256:4569   */\n    tag_21:\n        /* \"#utility.yul\":4369:4373   */\n      0x00\n        /* \"#utility.yul\":4407:4409   */\n      0x20\n        /* \"#utility.yul\":4396:4405   */\n      dup3\n        /* \"#utility.yul\":4392:4410   */\n      add\n        /* \"#utility.yul\":4384:4410   */\n      swap1\n      pop\n        /* \"#utility.yul\":4456:4465   */\n      dup2\n        /* \"#utility.yul\":4450:4454   */\n      dup2\n        /* \"#utility.yul\":4446:4466   */\n      sub\n        /* \"#utility.yul\":4442:4443   */\n      0x00\n        /* \"#utility.yul\":4431:4440   */\n      dup4\n        /* \"#utility.yul\":4427:4444   */\n      add\n        /* \"#utility.yul\":4420:4467   */\n      mstore\n        /* \"#utility.yul\":4484:4562   */\n      tag_181\n        /* \"#utility.yul\":4557:4561   */\n      dup2\n        /* \"#utility.yul\":4548:4554   */\n      dup5\n        /* \"#utility.yul\":4484:4562   */\n      tag_135\n      jump\t// in\n    tag_181:\n        /* \"#utility.yul\":4476:4562   */\n      swap1\n      pop\n        /* \"#utility.yul\":4256:4569   */\n      swap3\n      swap2\n      pop\n      pop\n      jump\t// out\n        /* \"#utility.yul\":4575:4994   */\n    tag_85:\n        /* \"#utility.yul\":4741:4745   */\n      0x00\n        /* \"#utility.yul\":4779:4781   */\n      0x20\n        /* \"#utility.yul\":4768:4777   */\n      dup3\n        /* \"#utility.yul\":4764:4782   */\n      add\n        /* \"#utility.yul\":4756:4782   */\n      swap1\n      pop\n        /* \"#utility.yul\":4828:4837   */\n      dup2\n        /* \"#utility.yul\":4822:4826   */\n      dup2\n        /* \"#utility.yul\":4818:4838   */\n      sub\n        /* \"#utility.yul\":4814:4815   */\n      0x00\n        /* \"#utility.yul\":4803:4812   */\n      dup4\n        /* \"#utility.yul\":4799:4816   */\n      add\n        /* \"#utility.yul\":4792:4839   */\n      mstore\n        /* \"#utility.yul\":4856:4987   */\n      tag_183\n        /* \"#utility.yul\":4982:4986   */\n      dup2\n        /* \"#utility.yul\":4856:4987   */\n      tag_145\n      jump\t// in\n    tag_183:\n        /* \"#utility.yul\":4848:4987   */\n      swap1\n      pop\n        /* \"#utility.yul\":4575:4994   */\n      swap2\n      swap1\n      pop\n      jump\t// out\n        /* \"#utility.yul\":5000:5419   */\n    tag_103:\n        /* \"#utility.yul\":5166:5170   */\n      0x00\n        /* \"#utility.yul\":5204:5206   */\n      0x20\n        /* \"#utility.yul\":5193:5202   */\n      dup3\n        /* \"#utility.yul\":5189:5207   */\n      add\n        /* \"#utility.yul\":5181:5207   */\n      swap1\n      pop\n        /* \"#utility.yul\":5253:5262   */\n      dup2\n        /* \"#utility.yul\":5247:5251   */\n      dup2\n        /* \"#utility.yul\":5243:5263   */\n      sub\n        /* \"#utility.yul\":5239:5240   */\n      0x00\n        /* \"#utility.yul\":5228:5237   */\n      dup4\n        /* \"#utility.yul\":5224:5241   */\n      add\n        /* \"#utility.yul\":5217:5264   */\n      mstore\n        /* \"#utility.yul\":5281:5412   */\n      tag_185\n        /* \"#utility.yul\":5407:5411   */\n      dup2\n        /* \"#utility.yul\":5281:5412   */\n      tag_150\n      jump\t// in\n    tag_185:\n        /* \"#utility.yul\":5273:5412   */\n      swap1\n      pop\n        /* \"#utility.yul\":5000:5419   */\n      swap2\n      swap1\n      pop\n      jump\t// out\n        /* \"#utility.yul\":5425:5844   */\n    tag_78:\n        /* \"#utility.yul\":5591:5595   */\n      0x00\n        /* \"#utility.yul\":5629:5631   */\n      0x20\n        /* \"#utility.yul\":5618:5627   */\n      dup3\n        /* \"#utility.yul\":5614:5632   */\n      add\n        /* \"#utility.yul\":5606:5632   */\n      swap1\n      pop\n        /* \"#utility.yul\":5678:5687   */\n      dup2\n        /* \"#utility.yul\":5672:5676   */\n      dup2\n        /* \"#utility.yul\":5668:5688   */\n      sub\n        /* \"#utility.yul\":5664:5665   */\n      0x00\n        /* \"#utility.yul\":5653:5662   */\n      dup4\n        /* \"#utility.yul\":5649:5666   */\n      add\n        /* \"#utility.yul\":5642:5689   */\n      mstore\n        /* \"#utility.yul\":5706:5837   */\n      tag_187\n        /* \"#utility.yul\":5832:5836   */\n      dup2\n        /* \"#utility.yul\":5706:5837   */\n      tag_155\n      jump\t// in\n    tag_187:\n        /* \"#utility.yul\":5698:5837   */\n      swap1\n      pop\n        /* \"#utility.yul\":5425:5844   */\n      swap2\n      swap1\n      pop\n      jump\t// out\n        /* \"#utility.yul\":5850:6269   */\n    tag_98:\n        /* \"#utility.yul\":6016:6020   */\n      0x00\n        /* \"#utility.yul\":6054:6056   */\n      0x20\n        /* \"#utility.yul\":6043:6052   */\n      dup3\n        /* \"#utility.yul\":6039:6057   */\n      add\n        /* \"#utility.yul\":6031:6057   */\n      swap1\n      pop\n        /* \"#utility.yul\":6103:6112   */\n      dup2\n        /* \"#utility.yul\":6097:6101   */\n      dup2\n        /* \"#utility.yul\":6093:6113   */\n      sub\n        /* \"#utility.yul\":6089:6090   */\n      0x00\n        /* \"#utility.yul\":6078:6087   */\n      dup4\n        /* \"#utility.yul\":6074:6091   */\n      add\n        /* \"#utility.yul\":6067:6114   */\n      mstore\n        /* \"#utility.yul\":6131:6262   */\n      tag_189\n        /* \"#utility.yul\":6257:6261   */\n      dup2\n        /* \"#utility.yul\":6131:6262   */\n      tag_160\n      jump\t// in\n    tag_189:\n        /* \"#utility.yul\":6123:6262   */\n      swap1\n      pop\n        /* \"#utility.yul\":5850:6269   */\n      swap2\n      swap1\n      pop\n      jump\t// out\n        /* \"#utility.yul\":6275:6694   */\n    tag_91:\n        /* \"#utility.yul\":6441:6445   */\n      0x00\n        /* \"#utility.yul\":6479:6481   */\n      0x20\n        /* \"#utility.yul\":6468:6477   */\n      dup3\n        /* \"#utility.yul\":6464:6482   */\n      add\n        /* \"#utility.yul\":6456:6482   */\n      swap1\n      pop\n        /* \"#utility.yul\":6528:6537   */\n      dup2\n        /* \"#utility.yul\":6522:6526   */\n      dup2\n        /* \"#utility.yul\":6518:6538   */\n      sub\n        /* \"#utility.yul\":6514:6515   */\n      0x00\n        /* \"#utility.yul\":6503:6512   */\n      dup4\n        /* \"#utility.yul\":6499:6516   */\n      add\n        /* \"#utility.yul\":6492:6539   */\n      mstore\n        /* \"#utility.yul\":6556:6687   */\n      tag_191\n        /* \"#utility.yul\":6682:6686   */\n      dup2\n        /* \"#utility.yul\":6556:6687   */\n      tag_165\n      jump\t// in\n    tag_191:\n        /* \"#utility.yul\":6548:6687   */\n      swap1\n      pop\n        /* \"#utility.yul\":6275:6694   */\n      swap2\n      swap1\n      pop\n      jump\t// out\n        /* \"#utility.yul\":6700:6922   */\n    tag_50:\n        /* \"#utility.yul\":6793:6797   */\n      0x00\n        /* \"#utility.yul\":6831:6833   */\n      0x20\n        /* \"#utility.yul\":6820:6829   */\n      dup3\n        /* \"#utility.yul\":6816:6834   */\n      add\n        /* \"#utility.yul\":6808:6834   */\n      swap1\n      pop\n        /* \"#utility.yul\":6844:6915   */\n      tag_193\n        /* \"#utility.yul\":6912:6913   */\n      0x00\n        /* \"#utility.yul\":6901:6910   */\n      dup4\n        /* \"#utility.yul\":6897:6914   */\n      add\n        /* \"#utility.yul\":6888:6894   */\n      dup5\n        /* \"#utility.yul\":6844:6915   */\n      tag_170\n      jump\t// in\n    tag_193:\n        /* \"#utility.yul\":6700:6922   */\n      swap3\n      swap2\n      pop\n      pop\n      jump\t// out\n        /* \"#utility.yul\":6928:7150   */\n    tag_30:\n        /* \"#utility.yul\":7021:7025   */\n      0x00\n        /* \"#utility.yul\":7059:7061   */\n      0x20\n        /* \"#utility.yul\":7048:7057   */\n      dup3\n        /* \"#utility.yul\":7044:7062   */\n      add\n        /* \"#utility.yul\":7036:7062   */\n      swap1\n      pop\n        /* \"#utility.yul\":7072:7143   */\n      tag_195\n        /* \"#utility.yul\":7140:7141   */\n      0x00\n        /* \"#utility.yul\":7129:7138   */\n      dup4\n        /* \"#utility.yul\":7125:7142   */\n      add\n        /* \"#utility.yul\":7116:7122   */\n      dup5\n        /* \"#utility.yul\":7072:7143   */\n      tag_174\n      jump\t// in\n    tag_195:\n        /* \"#utility.yul\":6928:7150   */\n      swap3\n      swap2\n      pop\n      pop\n      jump\t// out\n        /* \"#utility.yul\":7237:7336   */\n    tag_138:\n        /* \"#utility.yul\":7289:7295   */\n      0x00\n        /* \"#utility.yul\":7323:7328   */\n      dup2\n        /* \"#utility.yul\":7317:7329   */\n      mload\n        /* \"#utility.yul\":7307:7329   */\n      swap1\n      pop\n        /* \"#utility.yul\":7237:7336   */\n      swap2\n      swap1\n      pop\n      jump\t// out\n        /* \"#utility.yul\":7342:7511   */\n    tag_140:\n        /* \"#utility.yul\":7426:7437   */\n      0x00\n        /* \"#utility.yul\":7460:7466   */\n      dup3\n        /* \"#utility.yul\":7455:7458   */\n      dup3\n        /* \"#utility.yul\":7448:7467   */\n      mstore\n        /* \"#utility.yul\":7500:7504   */\n      0x20\n        /* \"#utility.yul\":7495:7498   */\n      dup3\n        /* \"#utility.yul\":7491:7505   */\n      add\n        /* \"#utility.yul\":7476:7505   */\n      swap1\n      pop\n        /* \"#utility.yul\":7342:7511   */\n      swap3\n      swap2\n      pop\n      pop\n      jump\t// out\n        /* \"#utility.yul\":7517:7822   */\n    tag_80:\n        /* \"#utility.yul\":7557:7560   */\n      0x00\n        /* \"#utility.yul\":7576:7596   */\n      tag_201\n        /* \"#utility.yul\":7594:7595   */\n      dup3\n        /* \"#utility.yul\":7576:7596   */\n      tag_177\n      jump\t// in\n    tag_201:\n        /* \"#utility.yul\":7571:7596   */\n      swap2\n      pop\n        /* \"#utility.yul\":7610:7630   */\n      tag_202\n        /* \"#utility.yul\":7628:7629   */\n      dup4\n        /* \"#utility.yul\":7610:7630   */\n      tag_177\n      jump\t// in\n    tag_202:\n        /* \"#utility.yul\":7605:7630   */\n      swap3\n      pop\n        /* \"#utility.yul\":7764:7765   */\n      dup3\n        /* \"#utility.yul\":7696:7762   */\n      0xffffffffffffffffffffffffffffffffffffffffffffffffffffffffffffffff\n        /* \"#utility.yul\":7692:7766   */\n      sub\n        /* \"#utility.yul\":7689:7690   */\n      dup3\n        /* \"#utility.yul\":7686:7767   */\n      gt\n        /* \"#utility.yul\":7683:7790   */\n      iszero\n      tag_203\n      jumpi\n        /* \"#utility.yul\":7770:7788   */\n      tag_204\n      tag_205\n      jump\t// in\n    tag_204:\n        /* \"#utility.yul\":7683:7790   */\n    tag_203:\n        /* \"#utility.yul\":7814:7815   */\n      dup3\n        /* \"#utility.yul\":7811:7812   */\n      dup3\n        /* \"#utility.yul\":7807:7816   */\n      add\n        /* \"#utility.yul\":7800:7816   */\n      swap1\n      pop\n        /* \"#utility.yul\":7517:7822   */\n      swap3\n      swap2\n      pop\n      pop\n      jump\t// out\n        /* \"#utility.yul\":7828:8176   */\n    tag_100:\n        /* \"#utility.yul\":7868:7875   */\n      0x00\n        /* \"#utility.yul\":7891:7911   */\n      tag_207\n        /* \"#utility.yul\":7909:7910   */\n      dup3\n        /* \"#utility.yul\":7891:7911   */\n      tag_177\n      jump\t// in\n    tag_207:\n        /* \"#utility.yul\":7886:7911   */\n      swap2\n      pop\n        /* \"#utility.yul\":7925:7945   */\n      tag_208\n        /* \"#utility.yul\":7943:7944   */\n      dup4\n        /* \"#utility.yul\":7925:7945   */\n      tag_177\n      jump\t// in\n    tag_208:\n        /* \"#utility.yul\":7920:7945   */\n      swap3\n      pop\n        /* \"#utility.yul\":8113:8114   */\n      dup2\n        /* \"#utility.yul\":8045:8111   */\n      0xffffffffffffffffffffffffffffffffffffffffffffffffffffffffffffffff\n        /* \"#utility.yul\":8041:8115   */\n      div\n        /* \"#utility.yul\":8038:8039   */\n      dup4\n        /* \"#utility.yul\":8035:8116   */\n      gt\n        /* \"#utility.yul\":8030:8031   */\n      dup3\n        /* \"#utility.yul\":8023:8032   */\n      iszero\n        /* \"#utility.yul\":8016:8033   */\n      iszero\n        /* \"#utility.yul\":8012:8117   */\n      and\n        /* \"#utility.yul\":8009:8140   */\n      iszero\n      tag_209\n      jumpi\n        /* \"#utility.yul\":8120:8138   */\n      tag_210\n      tag_205\n      jump\t// in\n    tag_210:\n        /* \"#utility.yul\":8009:8140   */\n    tag_209:\n        /* \"#utility.yul\":8168:8169   */\n      dup3\n        /* \"#utility.yul\":8165:8166   */\n      dup3\n        /* \"#utility.yul\":8161:8170   */\n      mul\n        /* \"#utility.yul\":8150:8170   */\n      swap1\n      pop\n        /* \"#utility.yul\":7828:8176   */\n      swap3\n      swap2\n      pop\n      pop\n      jump\t// out\n        /* \"#utility.yul\":8182:8373   */\n    tag_93:\n        /* \"#utility.yul\":8222:8226   */\n      0x00\n        /* \"#utility.yul\":8242:8262   */\n      tag_212\n        /* \"#utility.yul\":8260:8261   */\n      dup3\n        /* \"#utility.yul\":8242:8262   */\n      tag_177\n      jump\t// in\n    tag_212:\n        /* \"#utility.yul\":8237:8262   */\n      swap2\n      pop\n        /* \"#utility.yul\":8276:8296   */\n      tag_213\n        /* \"#utility.yul\":8294:8295   */\n      dup4\n        /* \"#utility.yul\":8276:8296   */\n      tag_177\n      jump\t// in\n    tag_213:\n        /* \"#utility.yul\":8271:8296   */\n      swap3\n      pop\n        /* \"#utility.yul\":8315:8316   */\n      dup3\n        /* \"#utility.yul\":8312:8313   */\n      dup3\n        /* \"#utility.yul\":8309:8317   */\n      lt\n        /* \"#utility.yul\":8306:8340   */\n      iszero\n      tag_214\n      jumpi\n        /* \"#utility.yul\":8320:8338   */\n      tag_215\n      tag_205\n      jump\t// in\n    tag_215:\n        /* \"#utility.yul\":8306:8340   */\n    tag_214:\n        /* \"#utility.yul\":8365:8366   */\n      dup3\n        /* \"#utility.yul\":8362:8363   */\n      dup3\n        /* \"#utility.yul\":8358:8367   */\n      sub\n        /* \"#utility.yul\":8350:8367   */\n      swap1\n      pop\n        /* \"#utility.yul\":8182:8373   */\n      swap3\n      swap2\n      pop\n      pop\n      jump\t// out\n        /* \"#utility.yul\":8379:8475   */\n    tag_216:\n        /* \"#utility.yul\":8416:8423   */\n      0x00\n        /* \"#utility.yul\":8445:8469   */\n      tag_218\n        /* \"#utility.yul\":8463:8468   */\n      dup3\n        /* \"#utility.yul\":8445:8469   */\n      tag_219\n      jump\t// in\n    tag_218:\n        /* \"#utility.yul\":8434:8469   */\n      swap1\n      pop\n        /* \"#utility.yul\":8379:8475   */\n      swap2\n      swap1\n      pop\n      jump\t// out\n        /* \"#utility.yul\":8481:8571   */\n    tag_134:\n        /* \"#utility.yul\":8515:8522   */\n      0x00\n        /* \"#utility.yul\":8558:8563   */\n      dup2\n        /* \"#utility.yul\":8551:8564   */\n      iszero\n        /* \"#utility.yul\":8544:8565   */\n      iszero\n        /* \"#utility.yul\":8533:8565   */\n      swap1\n      pop\n        /* \"#utility.yul\":8481:8571   */\n      swap2\n      swap1\n      pop\n      jump\t// out\n        /* \"#utility.yul\":8577:8695   */\n    tag_173:\n        /* \"#utility.yul\":8614:8621   */\n      0x00\n        /* \"#utility.yul\":8654:8688   */\n      0xffffffffffffffffffffffffffffffff\n        /* \"#utility.yul\":8647:8652   */\n      dup3\n        /* \"#utility.yul\":8643:8689   */\n      and\n        /* \"#utility.yul\":8632:8689   */\n      swap1\n      pop\n        /* \"#utility.yul\":8577:8695   */\n      swap2\n      swap1\n      pop\n      jump\t// out\n        /* \"#utility.yul\":8701:8827   */\n    tag_219:\n        /* \"#utility.yul\":8738:8745   */\n      0x00\n        /* \"#utility.yul\":8778:8820   */\n      0xffffffffffffffffffffffffffffffffffffffff\n        /* \"#utility.yul\":8771:8776   */\n      dup3\n        /* \"#utility.yul\":8767:8821   */\n      and\n        /* \"#utility.yul\":8756:8821   */\n      swap1\n      pop\n        /* \"#utility.yul\":8701:8827   */\n      swap2\n      swap1\n      pop\n      jump\t// out\n        /* \"#utility.yul\":8833:8910   */\n    tag_177:\n        /* \"#utility.yul\":8870:8877   */\n      0x00\n        /* \"#utility.yul\":8899:8904   */\n      dup2\n        /* \"#utility.yul\":8888:8904   */\n      swap1\n      pop\n        /* \"#utility.yul\":8833:8910   */\n      swap2\n      swap1\n      pop\n      jump\t// out\n        /* \"#utility.yul\":8916:9223   */\n    tag_142:\n        /* \"#utility.yul\":8984:8985   */\n      0x00\n        /* \"#utility.yul\":8994:9107   */\n    tag_225:\n        /* \"#utility.yul\":9008:9014   */\n      dup4\n        /* \"#utility.yul\":9005:9006   */\n      dup2\n        /* \"#utility.yul\":9002:9015   */\n      lt\n        /* \"#utility.yul\":8994:9107   */\n      iszero\n      tag_227\n      jumpi\n        /* \"#utility.yul\":9093:9094   */\n      dup1\n        /* \"#utility.yul\":9088:9091   */\n      dup3\n        /* \"#utility.yul\":9084:9095   */\n      add\n        /* \"#utility.yul\":9078:9096   */\n      mload\n        /* \"#utility.yul\":9074:9075   */\n      dup2\n        /* \"#utility.yul\":9069:9072   */\n      dup5\n        /* \"#utility.yul\":9065:9076   */\n      add\n        /* \"#utility.yul\":9058:9097   */\n      mstore\n        /* \"#utility.yul\":9030:9032   */\n      0x20\n        /* \"#utility.yul\":9027:9028   */\n      dup2\n        /* \"#utility.yul\":9023:9033   */\n      add\n        /* \"#utility.yul\":9018:9033   */\n      swap1\n      pop\n        /* \"#utility.yul\":8994:9107   */\n      jump(tag_225)\n    tag_227:\n        /* \"#utility.yul\":9125:9131   */\n      dup4\n        /* \"#utility.yul\":9122:9123   */\n      dup2\n        /* \"#utility.yul\":9119:9132   */\n      gt\n        /* \"#utility.yul\":9116:9217   */\n      iszero\n      tag_228\n      jumpi\n        /* \"#utility.yul\":9205:9206   */\n      0x00\n        /* \"#utility.yul\":9196:9202   */\n      dup5\n        /* \"#utility.yul\":9191:9194   */\n      dup5\n        /* \"#utility.yul\":9187:9203   */\n      add\n        /* \"#utility.yul\":9180:9207   */\n      mstore\n        /* \"#utility.yul\":9116:9217   */\n    tag_228:\n        /* \"#utility.yul\":8965:9223   */\n      pop\n        /* \"#utility.yul\":8916:9223   */\n      pop\n      pop\n      pop\n      jump\t// out\n        /* \"#utility.yul\":9229:9549   */\n    tag_63:\n        /* \"#utility.yul\":9273:9279   */\n      0x00\n        /* \"#utility.yul\":9310:9311   */\n      0x02\n        /* \"#utility.yul\":9304:9308   */\n      dup3\n        /* \"#utility.yul\":9300:9312   */\n      div\n        /* \"#utility.yul\":9290:9312   */\n      swap1\n      pop\n        /* \"#utility.yul\":9357:9358   */\n      0x01\n        /* \"#utility.yul\":9351:9355   */\n      dup3\n        /* \"#utility.yul\":9347:9359   */\n      and\n        /* \"#utility.yul\":9378:9396   */\n      dup1\n        /* \"#utility.yul\":9368:9449   */\n      tag_230\n      jumpi\n        /* \"#utility.yul\":9434:9438   */\n      0x7f\n        /* \"#utility.yul\":9426:9432   */\n      dup3\n        /* \"#utility.yul\":9422:9439   */\n      and\n        /* \"#utility.yul\":9412:9439   */\n      swap2\n      pop\n        /* \"#utility.yul\":9368:9449   */\n    tag_230:\n        /* \"#utility.yul\":9496:9498   */\n      0x20\n        /* \"#utility.yul\":9488:9494   */\n      dup3\n        /* \"#utility.yul\":9485:9499   */\n      lt\n        /* \"#utility.yul\":9465:9483   */\n      dup2\n        /* \"#utility.yul\":9462:9500   */\n      eq\n        /* \"#utility.yul\":9459:9543   */\n      iszero\n      tag_231\n      jumpi\n        /* \"#utility.yul\":9515:9533   */\n      tag_232\n      tag_233\n      jump\t// in\n    tag_232:\n        /* \"#utility.yul\":9459:9543   */\n    tag_231:\n        /* \"#utility.yul\":9280:9549   */\n      pop\n        /* \"#utility.yul\":9229:9549   */\n      swap2\n      swap1\n      pop\n      jump\t// out\n        /* \"#utility.yul\":9555:9735   */\n    tag_205:\n        /* \"#utility.yul\":9603:9680   */\n      0x4e487b7100000000000000000000000000000000000000000000000000000000\n        /* \"#utility.yul\":9600:9601   */\n      0x00\n        /* \"#utility.yul\":9593:9681   */\n      mstore\n        /* \"#utility.yul\":9700:9704   */\n      0x11\n        /* \"#utility.yul\":9697:9698   */\n      0x04\n        /* \"#utility.yul\":9690:9705   */\n      mstore\n        /* \"#utility.yul\":9724:9728   */\n      0x24\n        /* \"#utility.yul\":9721:9722   */\n      0x00\n        /* \"#utility.yul\":9714:9729   */\n      revert\n        /* \"#utility.yul\":9741:9921   */\n    tag_233:\n        /* \"#utility.yul\":9789:9866   */\n      0x4e487b7100000000000000000000000000000000000000000000000000000000\n        /* \"#utility.yul\":9786:9787   */\n      0x00\n        /* \"#utility.yul\":9779:9867   */\n      mstore\n        /* \"#utility.yul\":9886:9890   */\n      0x22\n        /* \"#utility.yul\":9883:9884   */\n      0x04\n        /* \"#utility.yul\":9876:9891   */\n      mstore\n        /* \"#utility.yul\":9910:9914   */\n      0x24\n        /* \"#utility.yul\":9907:9908   */\n      0x00\n        /* \"#utility.yul\":9900:9915   */\n      revert\n        /* \"#utility.yul\":10050:10167   */\n    tag_120:\n        /* \"#utility.yul\":10159:10160   */\n      0x00\n        /* \"#utility.yul\":10156:10157   */\n      dup1\n        /* \"#utility.yul\":10149:10161   */\n      revert\n        /* \"#utility.yul\":10173:10275   */\n    tag_144:\n        /* \"#utility.yul\":10214:10220   */\n      0x00\n        /* \"#utility.yul\":10265:10267   */\n      0x1f\n        /* \"#utility.yul\":10261:10268   */\n      not\n        /* \"#utility.yul\":10256:10258   */\n      0x1f\n        /* \"#utility.yul\":10249:10254   */\n      dup4\n        /* \"#utility.yul\":10245:10259   */\n      add\n        /* \"#utility.yul\":10241:10269   */\n      and\n        /* \"#utility.yul\":10231:10269   */\n      swap1\n      pop\n        /* \"#utility.yul\":10173:10275   */\n      swap2\n      swap1\n      pop\n      jump\t// out\n        /* \"#utility.yul\":10281:10502   */\n    tag_149:\n        /* \"#utility.yul\":10421:10455   */\n      0x4f6e6c79206f776e65722063616e2063616c6c20746869732066756e6374696f\n        /* \"#utility.yul\":10417:10418   */\n      0x00\n        /* \"#utility.yul\":10409:10415   */\n      dup3\n        /* \"#utility.yul\":10405:10419   */\n      add\n        /* \"#utility.yul\":10398:10456   */\n      mstore\n        /* \"#utility.yul\":10490:10494   */\n      0x6e2e000000000000000000000000000000000000000000000000000000000000\n        /* \"#utility.yul\":10485:10487   */\n      0x20\n        /* \"#utility.yul\":10477:10483   */\n      dup3\n        /* \"#utility.yul\":10473:10488   */\n      add\n        /* \"#utility.yul\":10466:10495   */\n      mstore\n        /* \"#utility.yul\":10281:10502   */\n      pop\n      jump\t// out\n        /* \"#utility.yul\":10508:10680   */\n    tag_154:\n        /* \"#utility.yul\":10648:10672   */\n      0x4e6f7420656e6f7567682045746820746f2073656c6c00000000000000000000\n        /* \"#utility.yul\":10644:10645   */\n      0x00\n        /* \"#utility.yul\":10636:10642   */\n      dup3\n        /* \"#utility.yul\":10632:10646   */\n      add\n        /* \"#utility.yul\":10625:10673   */\n      mstore\n        /* \"#utility.yul\":10508:10680   */\n      pop\n      jump\t// out\n        /* \"#utility.yul\":10686:10863   */\n    tag_159:\n        /* \"#utility.yul\":10826:10855   */\n      0x4f6e6c79206f776e65722063616e206d696e7420746f6b656e732e0000000000\n        /* \"#utility.yul\":10822:10823   */\n      0x00\n        /* \"#utility.yul\":10814:10820   */\n      dup3\n        /* \"#utility.yul\":10810:10824   */\n      add\n        /* \"#utility.yul\":10803:10856   */\n      mstore\n        /* \"#utility.yul\":10686:10863   */\n      pop\n      jump\t// out\n        /* \"#utility.yul\":10869:11038   */\n    tag_164:\n        /* \"#utility.yul\":11009:11030   */\n      0x496e73656666696369656e742066756e64732100000000000000000000000000\n        /* \"#utility.yul\":11005:11006   */\n      0x00\n        /* \"#utility.yul\":10997:11003   */\n      dup3\n        /* \"#utility.yul\":10993:11007   */\n      add\n        /* \"#utility.yul\":10986:11031   */\n      mstore\n        /* \"#utility.yul\":10869:11038   */\n      pop\n      jump\t// out\n        /* \"#utility.yul\":11044:11212   */\n    tag_169:\n        /* \"#utility.yul\":11184:11204   */\n      0x496e736566666963656e742066756e6473210000000000000000000000000000\n        /* \"#utility.yul\":11180:11181   */\n      0x00\n        /* \"#utility.yul\":11172:11178   */\n      dup3\n        /* \"#utility.yul\":11168:11182   */\n      add\n        /* \"#utility.yul\":11161:11205   */\n      mstore\n        /* \"#utility.yul\":11044:11212   */\n      pop\n      jump\t// out\n        /* \"#utility.yul\":11218:11340   */\n    tag_112:\n        /* \"#utility.yul\":11291:11315   */\n      tag_246\n        /* \"#utility.yul\":11309:11314   */\n      dup2\n        /* \"#utility.yul\":11291:11315   */\n      tag_216\n      jump\t// in\n    tag_246:\n        /* \"#utility.yul\":11284:11289   */\n      dup2\n        /* \"#utility.yul\":11281:11316   */\n      eq\n        /* \"#utility.yul\":11271:11334   */\n      tag_247\n      jumpi\n        /* \"#utility.yul\":11330:11331   */\n      0x00\n        /* \"#utility.yul\":11327:11328   */\n      dup1\n        /* \"#utility.yul\":11320:11332   */\n      revert\n        /* \"#utility.yul\":11271:11334   */\n    tag_247:\n        /* \"#utility.yul\":11218:11340   */\n      pop\n      jump\t// out\n        /* \"#utility.yul\":11346:11468   */\n    tag_116:\n        /* \"#utility.yul\":11419:11443   */\n      tag_249\n        /* \"#utility.yul\":11437:11442   */\n      dup2\n        /* \"#utility.yul\":11419:11443   */\n      tag_177\n      jump\t// in\n    tag_249:\n        /* \"#utility.yul\":11412:11417   */\n      dup2\n        /* \"#utility.yul\":11409:11444   */\n      eq\n        /* \"#utility.yul\":11399:11462   */\n      tag_250\n      jumpi\n        /* \"#utility.yul\":11458:11459   */\n      0x00\n        /* \"#utility.yul\":11455:11456   */\n      dup1\n        /* \"#utility.yul\":11448:11460   */\n      revert\n        /* \"#utility.yul\":11399:11462   */\n    tag_250:\n        /* \"#utility.yul\":11346:11468   */\n      pop\n      jump\t// out\n\n    auxdata: 0xa2646970667358221220b5421562d20990c7595876fdb92824f1af579bed795ec966205bab432931ba1064736f6c63430008070033\n}\n",
				"bytecode": {
					"linkReferences": {},
					"object": "608060405260006003553480156200001657600080fd5b50604051620013ae380380620013ae83398181016040528101906200003c9190620001e4565b336000806101000a81548173ffffffffffffffffffffffffffffffffffffffff021916908373ffffffffffffffffffffffffffffffffffffffff160217905550816001908051906020019062000094929190620000b6565b508060029080519060200190620000ad929190620000b6565b505050620003ed565b828054620000c490620002fe565b90600052602060002090601f016020900481019282620000e8576000855562000134565b82601f106200010357805160ff191683800117855562000134565b8280016001018555821562000134579182015b828111156200013357825182559160200191906001019062000116565b5b50905062000143919062000147565b5090565b5b808211156200016257600081600090555060010162000148565b5090565b60006200017d620001778462000292565b62000269565b9050828152602081018484840111156200019c576200019b620003cd565b5b620001a9848285620002c8565b509392505050565b600082601f830112620001c957620001c8620003c8565b5b8151620001db84826020860162000166565b91505092915050565b60008060408385031215620001fe57620001fd620003d7565b5b600083015167ffffffffffffffff8111156200021f576200021e620003d2565b5b6200022d85828601620001b1565b925050602083015167ffffffffffffffff811115620002515762000250620003d2565b5b6200025f85828601620001b1565b9150509250929050565b60006200027562000288565b905062000283828262000334565b919050565b6000604051905090565b600067ffffffffffffffff821115620002b057620002af62000399565b5b620002bb82620003dc565b9050602081019050919050565b60005b83811015620002e8578082015181840152602081019050620002cb565b83811115620002f8576000848401525b50505050565b600060028204905060018216806200031757607f821691505b602082108114156200032e576200032d6200036a565b5b50919050565b6200033f82620003dc565b810181811067ffffffffffffffff8211171562000361576200036062000399565b5b80604052505050565b7f4e487b7100000000000000000000000000000000000000000000000000000000600052602260045260246000fd5b7f4e487b7100000000000000000000000000000000000000000000000000000000600052604160045260246000fd5b600080fd5b600080fd5b600080fd5b600080fd5b6000601f19601f8301169050919050565b610fb180620003fd6000396000f3fe60806040526004361061008a5760003560e01c806343d726d61161005957806343d726d61461015157806370a082311461015b57806398d5fdca14610198578063a9059cbb146101c3578063e4849b321461020057610091565b8063150704011461009357806317d7de7c146100be57806318160ddd146100e957806340c10f191461011457610091565b3661009157005b005b34801561009f57600080fd5b506100a8610230565b6040516100b59190610b25565b60405180910390f35b3480156100ca57600080fd5b506100d36102c2565b6040516100e09190610b25565b60405180910390f35b3480156100f557600080fd5b506100fe610354565b60405161010b9190610c02565b60405180910390f35b34801561012057600080fd5b5061013b60048036038101906101369190610988565b61035e565b6040516101489190610b0a565b60405180910390f35b6101596104ac565b005b34801561016757600080fd5b50610182600480360381019061017d919061095b565b610573565b60405161018f9190610c02565b60405180910390f35b3480156101a457600080fd5b506101ad6105bc565b6040516101ba9190610be7565b60405180910390f35b3480156101cf57600080fd5b506101ea60048036038101906101e59190610988565b6105c6565b6040516101f79190610b0a565b60405180910390f35b61021a600480360381019061021591906109c8565b61075b565b6040516102279190610b0a565b60405180910390f35b60606002805461023f90610db4565b80601f016020809104026020016040519081016040528092919081815260200182805461026b90610db4565b80156102b85780601f1061028d576101008083540402835291602001916102b8565b820191906000526020600020905b81548152906001019060200180831161029b57829003601f168201915b5050505050905090565b6060600180546102d190610db4565b80601f01602080910402602001604051908101604052809291908181526020018280546102fd90610db4565b801561034a5780601f1061031f5761010080835404028352916020019161034a565b820191906000526020600020905b81548152906001019060200180831161032d57829003601f168201915b5050505050905090565b6000600354905090565b60008060009054906101000a900473ffffffffffffffffffffffffffffffffffffffff1673ffffffffffffffffffffffffffffffffffffffff163373ffffffffffffffffffffffffffffffffffffffff16146103ef576040517f08c379a00000000000000000000000000000000000000000000000000000000081526004016103e690610b87565b60405180910390fd5b81600360008282546104019190610c39565b9250508190555081600460008573ffffffffffffffffffffffffffffffffffffffff1673ffffffffffffffffffffffffffffffffffffffff16815260200190815260200160002060008282546104579190610c39565b92505081905550818373ffffffffffffffffffffffffffffffffffffffff167f0f6798a560793a54c3bcfe86a93cde1e73087d944c0ea20544137d412139688560405160405180910390a36001905092915050565b60008054906101000a900473ffffffffffffffffffffffffffffffffffffffff1673ffffffffffffffffffffffffffffffffffffffff163373ffffffffffffffffffffffffffffffffffffffff161461053a576040517f08c379a000000000000000000000000000000000000000000000000000000000815260040161053190610b47565b60405180910390fd5b60008054906101000a900473ffffffffffffffffffffffffffffffffffffffff1673ffffffffffffffffffffffffffffffffffffffff16ff5b6000600460008373ffffffffffffffffffffffffffffffffffffffff1673ffffffffffffffffffffffffffffffffffffffff168152602001908152602001600020549050919050565b6000610258905090565b600081600460003373ffffffffffffffffffffffffffffffffffffffff1673ffffffffffffffffffffffffffffffffffffffff16815260200190815260200160002054101561064a576040517f08c379a000000000000000000000000000000000000000000000000000000000815260040161064190610bc7565b60405180910390fd5b81600460003373ffffffffffffffffffffffffffffffffffffffff1673ffffffffffffffffffffffffffffffffffffffff16815260200190815260200160002060008282546106999190610ce9565b9250508190555081600460008573ffffffffffffffffffffffffffffffffffffffff1673ffffffffffffffffffffffffffffffffffffffff16815260200190815260200160002060008282546106ef9190610c39565b92505081905550818373ffffffffffffffffffffffffffffffffffffffff163373ffffffffffffffffffffffffffffffffffffffff167fddf252ad1be2c89b69c2b068fc378daa952ba7f163c4a11628f55a4df523b3ef60405160405180910390a46001905092915050565b600081600460003373ffffffffffffffffffffffffffffffffffffffff1673ffffffffffffffffffffffffffffffffffffffff1681526020019081526020016000205410156107df576040517f08c379a00000000000000000000000000000000000000000000000000000000081526004016107d690610ba7565b60405180910390fd5b816102586107ed9190610c8f565b47101561082f576040517f08c379a000000000000000000000000000000000000000000000000000000000815260040161082690610b67565b60405180910390fd5b81600460003373ffffffffffffffffffffffffffffffffffffffff1673ffffffffffffffffffffffffffffffffffffffff168152602001908152602001600020600082825461087e9190610ce9565b9250508190555081600360008282546108979190610ce9565b92505081905550813373ffffffffffffffffffffffffffffffffffffffff167f5e5e995ce3133561afceaa51a9a154d5db228cd7525d34df5185582c18d3df0960405160405180910390a360003373ffffffffffffffffffffffffffffffffffffffff166108fc8461025861090c9190610c8f565b9081150290604051600060405180830381858888f19350505050905080915050919050565b60008135905061094081610f4d565b92915050565b60008135905061095581610f64565b92915050565b60006020828403121561097157610970610e44565b5b600061097f84828501610931565b91505092915050565b6000806040838503121561099f5761099e610e44565b5b60006109ad85828601610931565b92505060206109be85828601610946565b9150509250929050565b6000602082840312156109de576109dd610e44565b5b60006109ec84828501610946565b91505092915050565b6109fe81610d2f565b82525050565b6000610a0f82610c1d565b610a198185610c28565b9350610a29818560208601610d81565b610a3281610e49565b840191505092915050565b6000610a4a602283610c28565b9150610a5582610e5a565b604082019050919050565b6000610a6d601683610c28565b9150610a7882610ea9565b602082019050919050565b6000610a90601b83610c28565b9150610a9b82610ed2565b602082019050919050565b6000610ab3601383610c28565b9150610abe82610efb565b602082019050919050565b6000610ad6601283610c28565b9150610ae182610f24565b602082019050919050565b610af581610d3b565b82525050565b610b0481610d77565b82525050565b6000602082019050610b1f60008301846109f5565b92915050565b60006020820190508181036000830152610b3f8184610a04565b905092915050565b60006020820190508181036000830152610b6081610a3d565b9050919050565b60006020820190508181036000830152610b8081610a60565b9050919050565b60006020820190508181036000830152610ba081610a83565b9050919050565b60006020820190508181036000830152610bc081610aa6565b9050919050565b60006020820190508181036000830152610be081610ac9565b9050919050565b6000602082019050610bfc6000830184610aec565b92915050565b6000602082019050610c176000830184610afb565b92915050565b600081519050919050565b600082825260208201905092915050565b6000610c4482610d77565b9150610c4f83610d77565b9250827fffffffffffffffffffffffffffffffffffffffffffffffffffffffffffffffff03821115610c8457610c83610de6565b5b828201905092915050565b6000610c9a82610d77565b9150610ca583610d77565b9250817fffffffffffffffffffffffffffffffffffffffffffffffffffffffffffffffff0483118215151615610cde57610cdd610de6565b5b828202905092915050565b6000610cf482610d77565b9150610cff83610d77565b925082821015610d1257610d11610de6565b5b828203905092915050565b6000610d2882610d57565b9050919050565b60008115159050919050565b60006fffffffffffffffffffffffffffffffff82169050919050565b600073ffffffffffffffffffffffffffffffffffffffff82169050919050565b6000819050919050565b60005b83811015610d9f578082015181840152602081019050610d84565b83811115610dae576000848401525b50505050565b60006002820490506001821680610dcc57607f821691505b60208210811415610de057610ddf610e15565b5b50919050565b7f4e487b7100000000000000000000000000000000000000000000000000000000600052601160045260246000fd5b7f4e487b7100000000000000000000000000000000000000000000000000000000600052602260045260246000fd5b600080fd5b6000601f19601f8301169050919050565b7f4f6e6c79206f776e65722063616e2063616c6c20746869732066756e6374696f60008201527f6e2e000000000000000000000000000000000000000000000000000000000000602082015250565b7f4e6f7420656e6f7567682045746820746f2073656c6c00000000000000000000600082015250565b7f4f6e6c79206f776e65722063616e206d696e7420746f6b656e732e0000000000600082015250565b7f496e73656666696369656e742066756e64732100000000000000000000000000600082015250565b7f496e736566666963656e742066756e6473210000000000000000000000000000600082015250565b610f5681610d1d565b8114610f6157600080fd5b50565b610f6d81610d77565b8114610f7857600080fd5b5056fea2646970667358221220b5421562d20990c7595876fdb92824f1af579bed795ec966205bab432931ba1064736f6c63430008070033",
					"opcodes": "PUSH1 0x80 PUSH1 0x40 MSTORE PUSH1 0x0 PUSH1 0x3 SSTORE CALLVALUE DUP1 ISZERO PUSH3 0x16 JUMPI PUSH1 0x0 DUP1 REVERT JUMPDEST POP PUSH1 0x40 MLOAD PUSH3 0x13AE CODESIZE SUB DUP1 PUSH3 0x13AE DUP4 CODECOPY DUP2 DUP2 ADD PUSH1 0x40 MSTORE DUP2 ADD SWAP1 PUSH3 0x3C SWAP2 SWAP1 PUSH3 0x1E4 JUMP JUMPDEST CALLER PUSH1 0x0 DUP1 PUSH2 0x100 EXP DUP2 SLOAD DUP2 PUSH20 0xFFFFFFFFFFFFFFFFFFFFFFFFFFFFFFFFFFFFFFFF MUL NOT AND SWAP1 DUP4 PUSH20 0xFFFFFFFFFFFFFFFFFFFFFFFFFFFFFFFFFFFFFFFF AND MUL OR SWAP1 SSTORE POP DUP2 PUSH1 0x1 SWAP1 DUP1 MLOAD SWAP1 PUSH1 0x20 ADD SWAP1 PUSH3 0x94 SWAP3 SWAP2 SWAP1 PUSH3 0xB6 JUMP JUMPDEST POP DUP1 PUSH1 0x2 SWAP1 DUP1 MLOAD SWAP1 PUSH1 0x20 ADD SWAP1 PUSH3 0xAD SWAP3 SWAP2 SWAP1 PUSH3 0xB6 JUMP JUMPDEST POP POP POP PUSH3 0x3ED JUMP JUMPDEST DUP3 DUP1 SLOAD PUSH3 0xC4 SWAP1 PUSH3 0x2FE JUMP JUMPDEST SWAP1 PUSH1 0x0 MSTORE PUSH1 0x20 PUSH1 0x0 KECCAK256 SWAP1 PUSH1 0x1F ADD PUSH1 0x20 SWAP1 DIV DUP2 ADD SWAP3 DUP3 PUSH3 0xE8 JUMPI PUSH1 0x0 DUP6 SSTORE PUSH3 0x134 JUMP JUMPDEST DUP3 PUSH1 0x1F LT PUSH3 0x103 JUMPI DUP1 MLOAD PUSH1 0xFF NOT AND DUP4 DUP1 ADD OR DUP6 SSTORE PUSH3 0x134 JUMP JUMPDEST DUP3 DUP1 ADD PUSH1 0x1 ADD DUP6 SSTORE DUP3 ISZERO PUSH3 0x134 JUMPI SWAP2 DUP3 ADD JUMPDEST DUP3 DUP2 GT ISZERO PUSH3 0x133 JUMPI DUP3 MLOAD DUP3 SSTORE SWAP2 PUSH1 0x20 ADD SWAP2 SWAP1 PUSH1 0x1 ADD SWAP1 PUSH3 0x116 JUMP JUMPDEST JUMPDEST POP SWAP1 POP PUSH3 0x143 SWAP2 SWAP1 PUSH3 0x147 JUMP JUMPDEST POP SWAP1 JUMP JUMPDEST JUMPDEST DUP1 DUP3 GT ISZERO PUSH3 0x162 JUMPI PUSH1 0x0 DUP2 PUSH1 0x0 SWAP1 SSTORE POP PUSH1 0x1 ADD PUSH3 0x148 JUMP JUMPDEST POP SWAP1 JUMP JUMPDEST PUSH1 0x0 PUSH3 0x17D PUSH3 0x177 DUP5 PUSH3 0x292 JUMP JUMPDEST PUSH3 0x269 JUMP JUMPDEST SWAP1 POP DUP3 DUP2 MSTORE PUSH1 0x20 DUP2 ADD DUP5 DUP5 DUP5 ADD GT ISZERO PUSH3 0x19C JUMPI PUSH3 0x19B PUSH3 0x3CD JUMP JUMPDEST JUMPDEST PUSH3 0x1A9 DUP5 DUP3 DUP6 PUSH3 0x2C8 JUMP JUMPDEST POP SWAP4 SWAP3 POP POP POP JUMP JUMPDEST PUSH1 0x0 DUP3 PUSH1 0x1F DUP4 ADD SLT PUSH3 0x1C9 JUMPI PUSH3 0x1C8 PUSH3 0x3C8 JUMP JUMPDEST JUMPDEST DUP2 MLOAD PUSH3 0x1DB DUP5 DUP3 PUSH1 0x20 DUP7 ADD PUSH3 0x166 JUMP JUMPDEST SWAP2 POP POP SWAP3 SWAP2 POP POP JUMP JUMPDEST PUSH1 0x0 DUP1 PUSH1 0x40 DUP4 DUP6 SUB SLT ISZERO PUSH3 0x1FE JUMPI PUSH3 0x1FD PUSH3 0x3D7 JUMP JUMPDEST JUMPDEST PUSH1 0x0 DUP4 ADD MLOAD PUSH8 0xFFFFFFFFFFFFFFFF DUP2 GT ISZERO PUSH3 0x21F JUMPI PUSH3 0x21E PUSH3 0x3D2 JUMP JUMPDEST JUMPDEST PUSH3 0x22D DUP6 DUP3 DUP7 ADD PUSH3 0x1B1 JUMP JUMPDEST SWAP3 POP POP PUSH1 0x20 DUP4 ADD MLOAD PUSH8 0xFFFFFFFFFFFFFFFF DUP2 GT ISZERO PUSH3 0x251 JUMPI PUSH3 0x250 PUSH3 0x3D2 JUMP JUMPDEST JUMPDEST PUSH3 0x25F DUP6 DUP3 DUP7 ADD PUSH3 0x1B1 JUMP JUMPDEST SWAP2 POP POP SWAP3 POP SWAP3 SWAP1 POP JUMP JUMPDEST PUSH1 0x0 PUSH3 0x275 PUSH3 0x288 JUMP JUMPDEST SWAP1 POP PUSH3 0x283 DUP3 DUP3 PUSH3 0x334 JUMP JUMPDEST SWAP2 SWAP1 POP JUMP JUMPDEST PUSH1 0x0 PUSH1 0x40 MLOAD SWAP1 POP SWAP1 JUMP JUMPDEST PUSH1 0x0 PUSH8 0xFFFFFFFFFFFFFFFF DUP3 GT ISZERO PUSH3 0x2B0 JUMPI PUSH3 0x2AF PUSH3 0x399 JUMP JUMPDEST JUMPDEST PUSH3 0x2BB DUP3 PUSH3 0x3DC JUMP JUMPDEST SWAP1 POP PUSH1 0x20 DUP2 ADD SWAP1 POP SWAP2 SWAP1 POP JUMP JUMPDEST PUSH1 0x0 JUMPDEST DUP4 DUP2 LT ISZERO PUSH3 0x2E8 JUMPI DUP1 DUP3 ADD MLOAD DUP2 DUP5 ADD MSTORE PUSH1 0x20 DUP2 ADD SWAP1 POP PUSH3 0x2CB JUMP JUMPDEST DUP4 DUP2 GT ISZERO PUSH3 0x2F8 JUMPI PUSH1 0x0 DUP5 DUP5 ADD MSTORE JUMPDEST POP POP POP POP JUMP JUMPDEST PUSH1 0x0 PUSH1 0x2 DUP3 DIV SWAP1 POP PUSH1 0x1 DUP3 AND DUP1 PUSH3 0x317 JUMPI PUSH1 0x7F DUP3 AND SWAP2 POP JUMPDEST PUSH1 0x20 DUP3 LT DUP2 EQ ISZERO PUSH3 0x32E JUMPI PUSH3 0x32D PUSH3 0x36A JUMP JUMPDEST JUMPDEST POP SWAP2 SWAP1 POP JUMP JUMPDEST PUSH3 0x33F DUP3 PUSH3 0x3DC JUMP JUMPDEST DUP2 ADD DUP2 DUP2 LT PUSH8 0xFFFFFFFFFFFFFFFF DUP3 GT OR ISZERO PUSH3 0x361 JUMPI PUSH3 0x360 PUSH3 0x399 JUMP JUMPDEST JUMPDEST DUP1 PUSH1 0x40 MSTORE POP POP POP JUMP JUMPDEST PUSH32 0x4E487B7100000000000000000000000000000000000000000000000000000000 PUSH1 0x0 MSTORE PUSH1 0x22 PUSH1 0x4 MSTORE PUSH1 0x24 PUSH1 0x0 REVERT JUMPDEST PUSH32 0x4E487B7100000000000000000000000000000000000000000000000000000000 PUSH1 0x0 MSTORE PUSH1 0x41 PUSH1 0x4 MSTORE PUSH1 0x24 PUSH1 0x0 REVERT JUMPDEST PUSH1 0x0 DUP1 REVERT JUMPDEST PUSH1 0x0 DUP1 REVERT JUMPDEST PUSH1 0x0 DUP1 REVERT JUMPDEST PUSH1 0x0 DUP1 REVERT JUMPDEST PUSH1 0x0 PUSH1 0x1F NOT PUSH1 0x1F DUP4 ADD AND SWAP1 POP SWAP2 SWAP1 POP JUMP JUMPDEST PUSH2 0xFB1 DUP1 PUSH3 0x3FD PUSH1 0x0 CODECOPY PUSH1 0x0 RETURN INVALID PUSH1 0x80 PUSH1 0x40 MSTORE PUSH1 0x4 CALLDATASIZE LT PUSH2 0x8A JUMPI PUSH1 0x0 CALLDATALOAD PUSH1 0xE0 SHR DUP1 PUSH4 0x43D726D6 GT PUSH2 0x59 JUMPI DUP1 PUSH4 0x43D726D6 EQ PUSH2 0x151 JUMPI DUP1 PUSH4 0x70A08231 EQ PUSH2 0x15B JUMPI DUP1 PUSH4 0x98D5FDCA EQ PUSH2 0x198 JUMPI DUP1 PUSH4 0xA9059CBB EQ PUSH2 0x1C3 JUMPI DUP1 PUSH4 0xE4849B32 EQ PUSH2 0x200 JUMPI PUSH2 0x91 JUMP JUMPDEST DUP1 PUSH4 0x15070401 EQ PUSH2 0x93 JUMPI DUP1 PUSH4 0x17D7DE7C EQ PUSH2 0xBE JUMPI DUP1 PUSH4 0x18160DDD EQ PUSH2 0xE9 JUMPI DUP1 PUSH4 0x40C10F19 EQ PUSH2 0x114 JUMPI PUSH2 0x91 JUMP JUMPDEST CALLDATASIZE PUSH2 0x91 JUMPI STOP JUMPDEST STOP JUMPDEST CALLVALUE DUP1 ISZERO PUSH2 0x9F JUMPI PUSH1 0x0 DUP1 REVERT JUMPDEST POP PUSH2 0xA8 PUSH2 0x230 JUMP JUMPDEST PUSH1 0x40 MLOAD PUSH2 0xB5 SWAP2 SWAP1 PUSH2 0xB25 JUMP JUMPDEST PUSH1 0x40 MLOAD DUP1 SWAP2 SUB SWAP1 RETURN JUMPDEST CALLVALUE DUP1 ISZERO PUSH2 0xCA JUMPI PUSH1 0x0 DUP1 REVERT JUMPDEST POP PUSH2 0xD3 PUSH2 0x2C2 JUMP JUMPDEST PUSH1 0x40 MLOAD PUSH2 0xE0 SWAP2 SWAP1 PUSH2 0xB25 JUMP JUMPDEST PUSH1 0x40 MLOAD DUP1 SWAP2 SUB SWAP1 RETURN JUMPDEST CALLVALUE DUP1 ISZERO PUSH2 0xF5 JUMPI PUSH1 0x0 DUP1 REVERT JUMPDEST POP PUSH2 0xFE PUSH2 0x354 JUMP JUMPDEST PUSH1 0x40 MLOAD PUSH2 0x10B SWAP2 SWAP1 PUSH2 0xC02 JUMP JUMPDEST PUSH1 0x40 MLOAD DUP1 SWAP2 SUB SWAP1 RETURN JUMPDEST CALLVALUE DUP1 ISZERO PUSH2 0x120 JUMPI PUSH1 0x0 DUP1 REVERT JUMPDEST POP PUSH2 0x13B PUSH1 0x4 DUP1 CALLDATASIZE SUB DUP2 ADD SWAP1 PUSH2 0x136 SWAP2 SWAP1 PUSH2 0x988 JUMP JUMPDEST PUSH2 0x35E JUMP JUMPDEST PUSH1 0x40 MLOAD PUSH2 0x148 SWAP2 SWAP1 PUSH2 0xB0A JUMP JUMPDEST PUSH1 0x40 MLOAD DUP1 SWAP2 SUB SWAP1 RETURN JUMPDEST PUSH2 0x159 PUSH2 0x4AC JUMP JUMPDEST STOP JUMPDEST CALLVALUE DUP1 ISZERO PUSH2 0x167 JUMPI PUSH1 0x0 DUP1 REVERT JUMPDEST POP PUSH2 0x182 PUSH1 0x4 DUP1 CALLDATASIZE SUB DUP2 ADD SWAP1 PUSH2 0x17D SWAP2 SWAP1 PUSH2 0x95B JUMP JUMPDEST PUSH2 0x573 JUMP JUMPDEST PUSH1 0x40 MLOAD PUSH2 0x18F SWAP2 SWAP1 PUSH2 0xC02 JUMP JUMPDEST PUSH1 0x40 MLOAD DUP1 SWAP2 SUB SWAP1 RETURN JUMPDEST CALLVALUE DUP1 ISZERO PUSH2 0x1A4 JUMPI PUSH1 0x0 DUP1 REVERT JUMPDEST POP PUSH2 0x1AD PUSH2 0x5BC JUMP JUMPDEST PUSH1 0x40 MLOAD PUSH2 0x1BA SWAP2 SWAP1 PUSH2 0xBE7 JUMP JUMPDEST PUSH1 0x40 MLOAD DUP1 SWAP2 SUB SWAP1 RETURN JUMPDEST CALLVALUE DUP1 ISZERO PUSH2 0x1CF JUMPI PUSH1 0x0 DUP1 REVERT JUMPDEST POP PUSH2 0x1EA PUSH1 0x4 DUP1 CALLDATASIZE SUB DUP2 ADD SWAP1 PUSH2 0x1E5 SWAP2 SWAP1 PUSH2 0x988 JUMP JUMPDEST PUSH2 0x5C6 JUMP JUMPDEST PUSH1 0x40 MLOAD PUSH2 0x1F7 SWAP2 SWAP1 PUSH2 0xB0A JUMP JUMPDEST PUSH1 0x40 MLOAD DUP1 SWAP2 SUB SWAP1 RETURN JUMPDEST PUSH2 0x21A PUSH1 0x4 DUP1 CALLDATASIZE SUB DUP2 ADD SWAP1 PUSH2 0x215 SWAP2 SWAP1 PUSH2 0x9C8 JUMP JUMPDEST PUSH2 0x75B JUMP JUMPDEST PUSH1 0x40 MLOAD PUSH2 0x227 SWAP2 SWAP1 PUSH2 0xB0A JUMP JUMPDEST PUSH1 0x40 MLOAD DUP1 SWAP2 SUB SWAP1 RETURN JUMPDEST PUSH1 0x60 PUSH1 0x2 DUP1 SLOAD PUSH2 0x23F SWAP1 PUSH2 0xDB4 JUMP JUMPDEST DUP1 PUSH1 0x1F ADD PUSH1 0x20 DUP1 SWAP2 DIV MUL PUSH1 0x20 ADD PUSH1 0x40 MLOAD SWAP1 DUP2 ADD PUSH1 0x40 MSTORE DUP1 SWAP3 SWAP2 SWAP1 DUP2 DUP2 MSTORE PUSH1 0x20 ADD DUP3 DUP1 SLOAD PUSH2 0x26B SWAP1 PUSH2 0xDB4 JUMP JUMPDEST DUP1 ISZERO PUSH2 0x2B8 JUMPI DUP1 PUSH1 0x1F LT PUSH2 0x28D JUMPI PUSH2 0x100 DUP1 DUP4 SLOAD DIV MUL DUP4 MSTORE SWAP2 PUSH1 0x20 ADD SWAP2 PUSH2 0x2B8 JUMP JUMPDEST DUP3 ADD SWAP2 SWAP1 PUSH1 0x0 MSTORE PUSH1 0x20 PUSH1 0x0 KECCAK256 SWAP1 JUMPDEST DUP2 SLOAD DUP2 MSTORE SWAP1 PUSH1 0x1 ADD SWAP1 PUSH1 0x20 ADD DUP1 DUP4 GT PUSH2 0x29B JUMPI DUP3 SWAP1 SUB PUSH1 0x1F AND DUP3 ADD SWAP2 JUMPDEST POP POP POP POP POP SWAP1 POP SWAP1 JUMP JUMPDEST PUSH1 0x60 PUSH1 0x1 DUP1 SLOAD PUSH2 0x2D1 SWAP1 PUSH2 0xDB4 JUMP JUMPDEST DUP1 PUSH1 0x1F ADD PUSH1 0x20 DUP1 SWAP2 DIV MUL PUSH1 0x20 ADD PUSH1 0x40 MLOAD SWAP1 DUP2 ADD PUSH1 0x40 MSTORE DUP1 SWAP3 SWAP2 SWAP1 DUP2 DUP2 MSTORE PUSH1 0x20 ADD DUP3 DUP1 SLOAD PUSH2 0x2FD SWAP1 PUSH2 0xDB4 JUMP JUMPDEST DUP1 ISZERO PUSH2 0x34A JUMPI DUP1 PUSH1 0x1F LT PUSH2 0x31F JUMPI PUSH2 0x100 DUP1 DUP4 SLOAD DIV MUL DUP4 MSTORE SWAP2 PUSH1 0x20 ADD SWAP2 PUSH2 0x34A JUMP JUMPDEST DUP3 ADD SWAP2 SWAP1 PUSH1 0x0 MSTORE PUSH1 0x20 PUSH1 0x0 KECCAK256 SWAP1 JUMPDEST DUP2 SLOAD DUP2 MSTORE SWAP1 PUSH1 0x1 ADD SWAP1 PUSH1 0x20 ADD DUP1 DUP4 GT PUSH2 0x32D JUMPI DUP3 SWAP1 SUB PUSH1 0x1F AND DUP3 ADD SWAP2 JUMPDEST POP POP POP POP POP SWAP1 POP SWAP1 JUMP JUMPDEST PUSH1 0x0 PUSH1 0x3 SLOAD SWAP1 POP SWAP1 JUMP JUMPDEST PUSH1 0x0 DUP1 PUSH1 0x0 SWAP1 SLOAD SWAP1 PUSH2 0x100 EXP SWAP1 DIV PUSH20 0xFFFFFFFFFFFFFFFFFFFFFFFFFFFFFFFFFFFFFFFF AND PUSH20 0xFFFFFFFFFFFFFFFFFFFFFFFFFFFFFFFFFFFFFFFF AND CALLER PUSH20 0xFFFFFFFFFFFFFFFFFFFFFFFFFFFFFFFFFFFFFFFF AND EQ PUSH2 0x3EF JUMPI PUSH1 0x40 MLOAD PUSH32 0x8C379A000000000000000000000000000000000000000000000000000000000 DUP2 MSTORE PUSH1 0x4 ADD PUSH2 0x3E6 SWAP1 PUSH2 0xB87 JUMP JUMPDEST PUSH1 0x40 MLOAD DUP1 SWAP2 SUB SWAP1 REVERT JUMPDEST DUP2 PUSH1 0x3 PUSH1 0x0 DUP3 DUP3 SLOAD PUSH2 0x401 SWAP2 SWAP1 PUSH2 0xC39 JUMP JUMPDEST SWAP3 POP POP DUP2 SWAP1 SSTORE POP DUP2 PUSH1 0x4 PUSH1 0x0 DUP6 PUSH20 0xFFFFFFFFFFFFFFFFFFFFFFFFFFFFFFFFFFFFFFFF AND PUSH20 0xFFFFFFFFFFFFFFFFFFFFFFFFFFFFFFFFFFFFFFFF AND DUP2 MSTORE PUSH1 0x20 ADD SWAP1 DUP2 MSTORE PUSH1 0x20 ADD PUSH1 0x0 KECCAK256 PUSH1 0x0 DUP3 DUP3 SLOAD PUSH2 0x457 SWAP2 SWAP1 PUSH2 0xC39 JUMP JUMPDEST SWAP3 POP POP DUP2 SWAP1 SSTORE POP DUP2 DUP4 PUSH20 0xFFFFFFFFFFFFFFFFFFFFFFFFFFFFFFFFFFFFFFFF AND PUSH32 0xF6798A560793A54C3BCFE86A93CDE1E73087D944C0EA20544137D4121396885 PUSH1 0x40 MLOAD PUSH1 0x40 MLOAD DUP1 SWAP2 SUB SWAP1 LOG3 PUSH1 0x1 SWAP1 POP SWAP3 SWAP2 POP POP JUMP JUMPDEST PUSH1 0x0 DUP1 SLOAD SWAP1 PUSH2 0x100 EXP SWAP1 DIV PUSH20 0xFFFFFFFFFFFFFFFFFFFFFFFFFFFFFFFFFFFFFFFF AND PUSH20 0xFFFFFFFFFFFFFFFFFFFFFFFFFFFFFFFFFFFFFFFF AND CALLER PUSH20 0xFFFFFFFFFFFFFFFFFFFFFFFFFFFFFFFFFFFFFFFF AND EQ PUSH2 0x53A JUMPI PUSH1 0x40 MLOAD PUSH32 0x8C379A000000000000000000000000000000000000000000000000000000000 DUP2 MSTORE PUSH1 0x4 ADD PUSH2 0x531 SWAP1 PUSH2 0xB47 JUMP JUMPDEST PUSH1 0x40 MLOAD DUP1 SWAP2 SUB SWAP1 REVERT JUMPDEST PUSH1 0x0 DUP1 SLOAD SWAP1 PUSH2 0x100 EXP SWAP1 DIV PUSH20 0xFFFFFFFFFFFFFFFFFFFFFFFFFFFFFFFFFFFFFFFF AND PUSH20 0xFFFFFFFFFFFFFFFFFFFFFFFFFFFFFFFFFFFFFFFF AND SELFDESTRUCT JUMPDEST PUSH1 0x0 PUSH1 0x4 PUSH1 0x0 DUP4 PUSH20 0xFFFFFFFFFFFFFFFFFFFFFFFFFFFFFFFFFFFFFFFF AND PUSH20 0xFFFFFFFFFFFFFFFFFFFFFFFFFFFFFFFFFFFFFFFF AND DUP2 MSTORE PUSH1 0x20 ADD SWAP1 DUP2 MSTORE PUSH1 0x20 ADD PUSH1 0x0 KECCAK256 SLOAD SWAP1 POP SWAP2 SWAP1 POP JUMP JUMPDEST PUSH1 0x0 PUSH2 0x258 SWAP1 POP SWAP1 JUMP JUMPDEST PUSH1 0x0 DUP2 PUSH1 0x4 PUSH1 0x0 CALLER PUSH20 0xFFFFFFFFFFFFFFFFFFFFFFFFFFFFFFFFFFFFFFFF AND PUSH20 0xFFFFFFFFFFFFFFFFFFFFFFFFFFFFFFFFFFFFFFFF AND DUP2 MSTORE PUSH1 0x20 ADD SWAP1 DUP2 MSTORE PUSH1 0x20 ADD PUSH1 0x0 KECCAK256 SLOAD LT ISZERO PUSH2 0x64A JUMPI PUSH1 0x40 MLOAD PUSH32 0x8C379A000000000000000000000000000000000000000000000000000000000 DUP2 MSTORE PUSH1 0x4 ADD PUSH2 0x641 SWAP1 PUSH2 0xBC7 JUMP JUMPDEST PUSH1 0x40 MLOAD DUP1 SWAP2 SUB SWAP1 REVERT JUMPDEST DUP2 PUSH1 0x4 PUSH1 0x0 CALLER PUSH20 0xFFFFFFFFFFFFFFFFFFFFFFFFFFFFFFFFFFFFFFFF AND PUSH20 0xFFFFFFFFFFFFFFFFFFFFFFFFFFFFFFFFFFFFFFFF AND DUP2 MSTORE PUSH1 0x20 ADD SWAP1 DUP2 MSTORE PUSH1 0x20 ADD PUSH1 0x0 KECCAK256 PUSH1 0x0 DUP3 DUP3 SLOAD PUSH2 0x699 SWAP2 SWAP1 PUSH2 0xCE9 JUMP JUMPDEST SWAP3 POP POP DUP2 SWAP1 SSTORE POP DUP2 PUSH1 0x4 PUSH1 0x0 DUP6 PUSH20 0xFFFFFFFFFFFFFFFFFFFFFFFFFFFFFFFFFFFFFFFF AND PUSH20 0xFFFFFFFFFFFFFFFFFFFFFFFFFFFFFFFFFFFFFFFF AND DUP2 MSTORE PUSH1 0x20 ADD SWAP1 DUP2 MSTORE PUSH1 0x20 ADD PUSH1 0x0 KECCAK256 PUSH1 0x0 DUP3 DUP3 SLOAD PUSH2 0x6EF SWAP2 SWAP1 PUSH2 0xC39 JUMP JUMPDEST SWAP3 POP POP DUP2 SWAP1 SSTORE POP DUP2 DUP4 PUSH20 0xFFFFFFFFFFFFFFFFFFFFFFFFFFFFFFFFFFFFFFFF AND CALLER PUSH20 0xFFFFFFFFFFFFFFFFFFFFFFFFFFFFFFFFFFFFFFFF AND PUSH32 0xDDF252AD1BE2C89B69C2B068FC378DAA952BA7F163C4A11628F55A4DF523B3EF PUSH1 0x40 MLOAD PUSH1 0x40 MLOAD DUP1 SWAP2 SUB SWAP1 LOG4 PUSH1 0x1 SWAP1 POP SWAP3 SWAP2 POP POP JUMP JUMPDEST PUSH1 0x0 DUP2 PUSH1 0x4 PUSH1 0x0 CALLER PUSH20 0xFFFFFFFFFFFFFFFFFFFFFFFFFFFFFFFFFFFFFFFF AND PUSH20 0xFFFFFFFFFFFFFFFFFFFFFFFFFFFFFFFFFFFFFFFF AND DUP2 MSTORE PUSH1 0x20 ADD SWAP1 DUP2 MSTORE PUSH1 0x20 ADD PUSH1 0x0 KECCAK256 SLOAD LT ISZERO PUSH2 0x7DF JUMPI PUSH1 0x40 MLOAD PUSH32 0x8C379A000000000000000000000000000000000000000000000000000000000 DUP2 MSTORE PUSH1 0x4 ADD PUSH2 0x7D6 SWAP1 PUSH2 0xBA7 JUMP JUMPDEST PUSH1 0x40 MLOAD DUP1 SWAP2 SUB SWAP1 REVERT JUMPDEST DUP2 PUSH2 0x258 PUSH2 0x7ED SWAP2 SWAP1 PUSH2 0xC8F JUMP JUMPDEST SELFBALANCE LT ISZERO PUSH2 0x82F JUMPI PUSH1 0x40 MLOAD PUSH32 0x8C379A000000000000000000000000000000000000000000000000000000000 DUP2 MSTORE PUSH1 0x4 ADD PUSH2 0x826 SWAP1 PUSH2 0xB67 JUMP JUMPDEST PUSH1 0x40 MLOAD DUP1 SWAP2 SUB SWAP1 REVERT JUMPDEST DUP2 PUSH1 0x4 PUSH1 0x0 CALLER PUSH20 0xFFFFFFFFFFFFFFFFFFFFFFFFFFFFFFFFFFFFFFFF AND PUSH20 0xFFFFFFFFFFFFFFFFFFFFFFFFFFFFFFFFFFFFFFFF AND DUP2 MSTORE PUSH1 0x20 ADD SWAP1 DUP2 MSTORE PUSH1 0x20 ADD PUSH1 0x0 KECCAK256 PUSH1 0x0 DUP3 DUP3 SLOAD PUSH2 0x87E SWAP2 SWAP1 PUSH2 0xCE9 JUMP JUMPDEST SWAP3 POP POP DUP2 SWAP1 SSTORE POP DUP2 PUSH1 0x3 PUSH1 0x0 DUP3 DUP3 SLOAD PUSH2 0x897 SWAP2 SWAP1 PUSH2 0xCE9 JUMP JUMPDEST SWAP3 POP POP DUP2 SWAP1 SSTORE POP DUP2 CALLER PUSH20 0xFFFFFFFFFFFFFFFFFFFFFFFFFFFFFFFFFFFFFFFF AND PUSH32 0x5E5E995CE3133561AFCEAA51A9A154D5DB228CD7525D34DF5185582C18D3DF09 PUSH1 0x40 MLOAD PUSH1 0x40 MLOAD DUP1 SWAP2 SUB SWAP1 LOG3 PUSH1 0x0 CALLER PUSH20 0xFFFFFFFFFFFFFFFFFFFFFFFFFFFFFFFFFFFFFFFF AND PUSH2 0x8FC DUP5 PUSH2 0x258 PUSH2 0x90C SWAP2 SWAP1 PUSH2 0xC8F JUMP JUMPDEST SWAP1 DUP2 ISZERO MUL SWAP1 PUSH1 0x40 MLOAD PUSH1 0x0 PUSH1 0x40 MLOAD DUP1 DUP4 SUB DUP2 DUP6 DUP9 DUP9 CALL SWAP4 POP POP POP POP SWAP1 POP DUP1 SWAP2 POP POP SWAP2 SWAP1 POP JUMP JUMPDEST PUSH1 0x0 DUP2 CALLDATALOAD SWAP1 POP PUSH2 0x940 DUP2 PUSH2 0xF4D JUMP JUMPDEST SWAP3 SWAP2 POP POP JUMP JUMPDEST PUSH1 0x0 DUP2 CALLDATALOAD SWAP1 POP PUSH2 0x955 DUP2 PUSH2 0xF64 JUMP JUMPDEST SWAP3 SWAP2 POP POP JUMP JUMPDEST PUSH1 0x0 PUSH1 0x20 DUP3 DUP5 SUB SLT ISZERO PUSH2 0x971 JUMPI PUSH2 0x970 PUSH2 0xE44 JUMP JUMPDEST JUMPDEST PUSH1 0x0 PUSH2 0x97F DUP5 DUP3 DUP6 ADD PUSH2 0x931 JUMP JUMPDEST SWAP2 POP POP SWAP3 SWAP2 POP POP JUMP JUMPDEST PUSH1 0x0 DUP1 PUSH1 0x40 DUP4 DUP6 SUB SLT ISZERO PUSH2 0x99F JUMPI PUSH2 0x99E PUSH2 0xE44 JUMP JUMPDEST JUMPDEST PUSH1 0x0 PUSH2 0x9AD DUP6 DUP3 DUP7 ADD PUSH2 0x931 JUMP JUMPDEST SWAP3 POP POP PUSH1 0x20 PUSH2 0x9BE DUP6 DUP3 DUP7 ADD PUSH2 0x946 JUMP JUMPDEST SWAP2 POP POP SWAP3 POP SWAP3 SWAP1 POP JUMP JUMPDEST PUSH1 0x0 PUSH1 0x20 DUP3 DUP5 SUB SLT ISZERO PUSH2 0x9DE JUMPI PUSH2 0x9DD PUSH2 0xE44 JUMP JUMPDEST JUMPDEST PUSH1 0x0 PUSH2 0x9EC DUP5 DUP3 DUP6 ADD PUSH2 0x946 JUMP JUMPDEST SWAP2 POP POP SWAP3 SWAP2 POP POP JUMP JUMPDEST PUSH2 0x9FE DUP2 PUSH2 0xD2F JUMP JUMPDEST DUP3 MSTORE POP POP JUMP JUMPDEST PUSH1 0x0 PUSH2 0xA0F DUP3 PUSH2 0xC1D JUMP JUMPDEST PUSH2 0xA19 DUP2 DUP6 PUSH2 0xC28 JUMP JUMPDEST SWAP4 POP PUSH2 0xA29 DUP2 DUP6 PUSH1 0x20 DUP7 ADD PUSH2 0xD81 JUMP JUMPDEST PUSH2 0xA32 DUP2 PUSH2 0xE49 JUMP JUMPDEST DUP5 ADD SWAP2 POP POP SWAP3 SWAP2 POP POP JUMP JUMPDEST PUSH1 0x0 PUSH2 0xA4A PUSH1 0x22 DUP4 PUSH2 0xC28 JUMP JUMPDEST SWAP2 POP PUSH2 0xA55 DUP3 PUSH2 0xE5A JUMP JUMPDEST PUSH1 0x40 DUP3 ADD SWAP1 POP SWAP2 SWAP1 POP JUMP JUMPDEST PUSH1 0x0 PUSH2 0xA6D PUSH1 0x16 DUP4 PUSH2 0xC28 JUMP JUMPDEST SWAP2 POP PUSH2 0xA78 DUP3 PUSH2 0xEA9 JUMP JUMPDEST PUSH1 0x20 DUP3 ADD SWAP1 POP SWAP2 SWAP1 POP JUMP JUMPDEST PUSH1 0x0 PUSH2 0xA90 PUSH1 0x1B DUP4 PUSH2 0xC28 JUMP JUMPDEST SWAP2 POP PUSH2 0xA9B DUP3 PUSH2 0xED2 JUMP JUMPDEST PUSH1 0x20 DUP3 ADD SWAP1 POP SWAP2 SWAP1 POP JUMP JUMPDEST PUSH1 0x0 PUSH2 0xAB3 PUSH1 0x13 DUP4 PUSH2 0xC28 JUMP JUMPDEST SWAP2 POP PUSH2 0xABE DUP3 PUSH2 0xEFB JUMP JUMPDEST PUSH1 0x20 DUP3 ADD SWAP1 POP SWAP2 SWAP1 POP JUMP JUMPDEST PUSH1 0x0 PUSH2 0xAD6 PUSH1 0x12 DUP4 PUSH2 0xC28 JUMP JUMPDEST SWAP2 POP PUSH2 0xAE1 DUP3 PUSH2 0xF24 JUMP JUMPDEST PUSH1 0x20 DUP3 ADD SWAP1 POP SWAP2 SWAP1 POP JUMP JUMPDEST PUSH2 0xAF5 DUP2 PUSH2 0xD3B JUMP JUMPDEST DUP3 MSTORE POP POP JUMP JUMPDEST PUSH2 0xB04 DUP2 PUSH2 0xD77 JUMP JUMPDEST DUP3 MSTORE POP POP JUMP JUMPDEST PUSH1 0x0 PUSH1 0x20 DUP3 ADD SWAP1 POP PUSH2 0xB1F PUSH1 0x0 DUP4 ADD DUP5 PUSH2 0x9F5 JUMP JUMPDEST SWAP3 SWAP2 POP POP JUMP JUMPDEST PUSH1 0x0 PUSH1 0x20 DUP3 ADD SWAP1 POP DUP2 DUP2 SUB PUSH1 0x0 DUP4 ADD MSTORE PUSH2 0xB3F DUP2 DUP5 PUSH2 0xA04 JUMP JUMPDEST SWAP1 POP SWAP3 SWAP2 POP POP JUMP JUMPDEST PUSH1 0x0 PUSH1 0x20 DUP3 ADD SWAP1 POP DUP2 DUP2 SUB PUSH1 0x0 DUP4 ADD MSTORE PUSH2 0xB60 DUP2 PUSH2 0xA3D JUMP JUMPDEST SWAP1 POP SWAP2 SWAP1 POP JUMP JUMPDEST PUSH1 0x0 PUSH1 0x20 DUP3 ADD SWAP1 POP DUP2 DUP2 SUB PUSH1 0x0 DUP4 ADD MSTORE PUSH2 0xB80 DUP2 PUSH2 0xA60 JUMP JUMPDEST SWAP1 POP SWAP2 SWAP1 POP JUMP JUMPDEST PUSH1 0x0 PUSH1 0x20 DUP3 ADD SWAP1 POP DUP2 DUP2 SUB PUSH1 0x0 DUP4 ADD MSTORE PUSH2 0xBA0 DUP2 PUSH2 0xA83 JUMP JUMPDEST SWAP1 POP SWAP2 SWAP1 POP JUMP JUMPDEST PUSH1 0x0 PUSH1 0x20 DUP3 ADD SWAP1 POP DUP2 DUP2 SUB PUSH1 0x0 DUP4 ADD MSTORE PUSH2 0xBC0 DUP2 PUSH2 0xAA6 JUMP JUMPDEST SWAP1 POP SWAP2 SWAP1 POP JUMP JUMPDEST PUSH1 0x0 PUSH1 0x20 DUP3 ADD SWAP1 POP DUP2 DUP2 SUB PUSH1 0x0 DUP4 ADD MSTORE PUSH2 0xBE0 DUP2 PUSH2 0xAC9 JUMP JUMPDEST SWAP1 POP SWAP2 SWAP1 POP JUMP JUMPDEST PUSH1 0x0 PUSH1 0x20 DUP3 ADD SWAP1 POP PUSH2 0xBFC PUSH1 0x0 DUP4 ADD DUP5 PUSH2 0xAEC JUMP JUMPDEST SWAP3 SWAP2 POP POP JUMP JUMPDEST PUSH1 0x0 PUSH1 0x20 DUP3 ADD SWAP1 POP PUSH2 0xC17 PUSH1 0x0 DUP4 ADD DUP5 PUSH2 0xAFB JUMP JUMPDEST SWAP3 SWAP2 POP POP JUMP JUMPDEST PUSH1 0x0 DUP2 MLOAD SWAP1 POP SWAP2 SWAP1 POP JUMP JUMPDEST PUSH1 0x0 DUP3 DUP3 MSTORE PUSH1 0x20 DUP3 ADD SWAP1 POP SWAP3 SWAP2 POP POP JUMP JUMPDEST PUSH1 0x0 PUSH2 0xC44 DUP3 PUSH2 0xD77 JUMP JUMPDEST SWAP2 POP PUSH2 0xC4F DUP4 PUSH2 0xD77 JUMP JUMPDEST SWAP3 POP DUP3 PUSH32 0xFFFFFFFFFFFFFFFFFFFFFFFFFFFFFFFFFFFFFFFFFFFFFFFFFFFFFFFFFFFFFFFF SUB DUP3 GT ISZERO PUSH2 0xC84 JUMPI PUSH2 0xC83 PUSH2 0xDE6 JUMP JUMPDEST JUMPDEST DUP3 DUP3 ADD SWAP1 POP SWAP3 SWAP2 POP POP JUMP JUMPDEST PUSH1 0x0 PUSH2 0xC9A DUP3 PUSH2 0xD77 JUMP JUMPDEST SWAP2 POP PUSH2 0xCA5 DUP4 PUSH2 0xD77 JUMP JUMPDEST SWAP3 POP DUP2 PUSH32 0xFFFFFFFFFFFFFFFFFFFFFFFFFFFFFFFFFFFFFFFFFFFFFFFFFFFFFFFFFFFFFFFF DIV DUP4 GT DUP3 ISZERO ISZERO AND ISZERO PUSH2 0xCDE JUMPI PUSH2 0xCDD PUSH2 0xDE6 JUMP JUMPDEST JUMPDEST DUP3 DUP3 MUL SWAP1 POP SWAP3 SWAP2 POP POP JUMP JUMPDEST PUSH1 0x0 PUSH2 0xCF4 DUP3 PUSH2 0xD77 JUMP JUMPDEST SWAP2 POP PUSH2 0xCFF DUP4 PUSH2 0xD77 JUMP JUMPDEST SWAP3 POP DUP3 DUP3 LT ISZERO PUSH2 0xD12 JUMPI PUSH2 0xD11 PUSH2 0xDE6 JUMP JUMPDEST JUMPDEST DUP3 DUP3 SUB SWAP1 POP SWAP3 SWAP2 POP POP JUMP JUMPDEST PUSH1 0x0 PUSH2 0xD28 DUP3 PUSH2 0xD57 JUMP JUMPDEST SWAP1 POP SWAP2 SWAP1 POP JUMP JUMPDEST PUSH1 0x0 DUP2 ISZERO ISZERO SWAP1 POP SWAP2 SWAP1 POP JUMP JUMPDEST PUSH1 0x0 PUSH16 0xFFFFFFFFFFFFFFFFFFFFFFFFFFFFFFFF DUP3 AND SWAP1 POP SWAP2 SWAP1 POP JUMP JUMPDEST PUSH1 0x0 PUSH20 0xFFFFFFFFFFFFFFFFFFFFFFFFFFFFFFFFFFFFFFFF DUP3 AND SWAP1 POP SWAP2 SWAP1 POP JUMP JUMPDEST PUSH1 0x0 DUP2 SWAP1 POP SWAP2 SWAP1 POP JUMP JUMPDEST PUSH1 0x0 JUMPDEST DUP4 DUP2 LT ISZERO PUSH2 0xD9F JUMPI DUP1 DUP3 ADD MLOAD DUP2 DUP5 ADD MSTORE PUSH1 0x20 DUP2 ADD SWAP1 POP PUSH2 0xD84 JUMP JUMPDEST DUP4 DUP2 GT ISZERO PUSH2 0xDAE JUMPI PUSH1 0x0 DUP5 DUP5 ADD MSTORE JUMPDEST POP POP POP POP JUMP JUMPDEST PUSH1 0x0 PUSH1 0x2 DUP3 DIV SWAP1 POP PUSH1 0x1 DUP3 AND DUP1 PUSH2 0xDCC JUMPI PUSH1 0x7F DUP3 AND SWAP2 POP JUMPDEST PUSH1 0x20 DUP3 LT DUP2 EQ ISZERO PUSH2 0xDE0 JUMPI PUSH2 0xDDF PUSH2 0xE15 JUMP JUMPDEST JUMPDEST POP SWAP2 SWAP1 POP JUMP JUMPDEST PUSH32 0x4E487B7100000000000000000000000000000000000000000000000000000000 PUSH1 0x0 MSTORE PUSH1 0x11 PUSH1 0x4 MSTORE PUSH1 0x24 PUSH1 0x0 REVERT JUMPDEST PUSH32 0x4E487B7100000000000000000000000000000000000000000000000000000000 PUSH1 0x0 MSTORE PUSH1 0x22 PUSH1 0x4 MSTORE PUSH1 0x24 PUSH1 0x0 REVERT JUMPDEST PUSH1 0x0 DUP1 REVERT JUMPDEST PUSH1 0x0 PUSH1 0x1F NOT PUSH1 0x1F DUP4 ADD AND SWAP1 POP SWAP2 SWAP1 POP JUMP JUMPDEST PUSH32 0x4F6E6C79206F776E65722063616E2063616C6C20746869732066756E6374696F PUSH1 0x0 DUP3 ADD MSTORE PUSH32 0x6E2E000000000000000000000000000000000000000000000000000000000000 PUSH1 0x20 DUP3 ADD MSTORE POP JUMP JUMPDEST PUSH32 0x4E6F7420656E6F7567682045746820746F2073656C6C00000000000000000000 PUSH1 0x0 DUP3 ADD MSTORE POP JUMP JUMPDEST PUSH32 0x4F6E6C79206F776E65722063616E206D696E7420746F6B656E732E0000000000 PUSH1 0x0 DUP3 ADD MSTORE POP JUMP JUMPDEST PUSH32 0x496E73656666696369656E742066756E64732100000000000000000000000000 PUSH1 0x0 DUP3 ADD MSTORE POP JUMP JUMPDEST PUSH32 0x496E736566666963656E742066756E6473210000000000000000000000000000 PUSH1 0x0 DUP3 ADD MSTORE POP JUMP JUMPDEST PUSH2 0xF56 DUP2 PUSH2 0xD1D JUMP JUMPDEST DUP2 EQ PUSH2 0xF61 JUMPI PUSH1 0x0 DUP1 REVERT JUMPDEST POP JUMP JUMPDEST PUSH2 0xF6D DUP2 PUSH2 0xD77 JUMP JUMPDEST DUP2 EQ PUSH2 0xF78 JUMPI PUSH1 0x0 DUP1 REVERT JUMPDEST POP JUMP INVALID LOG2 PUSH5 0x6970667358 0x22 SLT KECCAK256 0xB5 TIMESTAMP ISZERO PUSH3 0xD20990 0xC7 MSIZE PC PUSH23 0xFDB92824F1AF579BED795EC966205BAB432931BA106473 PUSH16 0x6C634300080700330000000000000000 "
				},
				"gasEstimates": {
					"creation": {
						"codeDepositCost": "803400",
						"executionCost": "infinite",
						"totalCost": "infinite"
					},
					"external": {
						"": "174",
						"balanceOf(address)": "2863",
						"close()": "32020",
						"getName()": "infinite",
						"getPrice()": "387",
						"getSymbol()": "infinite",
						"mint(address,uint256)": "infinite",
						"sell(uint256)": "infinite",
						"totalSupply()": "2482",
						"transfer(address,uint256)": "infinite"
					}
				},
				"methodIdentifiers": {
					"balanceOf(address)": "70a08231",
					"close()": "43d726d6",
					"getName()": "17d7de7c",
					"getPrice()": "98d5fdca",
					"getSymbol()": "15070401",
					"mint(address,uint256)": "40c10f19",
					"sell(uint256)": "e4849b32",
					"totalSupply()": "18160ddd",
					"transfer(address,uint256)": "a9059cbb"
				}
			},
			"storageLayout": {
				"storage": [
					{
						"astId": 3,
						"contract": "cw3.sol:Token",
						"label": "owner",
						"offset": 0,
						"slot": "0",
						"type": "t_address"
					},
					{
						"astId": 5,
						"contract": "cw3.sol:Token",
						"label": "tokenName",
						"offset": 0,
						"slot": "1",
						"type": "t_string_storage"
					},
					{
						"astId": 7,
						"contract": "cw3.sol:Token",
						"label": "tokenSymbol",
						"offset": 0,
						"slot": "2",
						"type": "t_string_storage"
					},
					{
						"astId": 10,
						"contract": "cw3.sol:Token",
						"label": "circulating",
						"offset": 0,
						"slot": "3",
						"type": "t_uint256"
					},
					{
						"astId": 14,
						"contract": "cw3.sol:Token",
						"label": "balances",
						"offset": 0,
						"slot": "4",
						"type": "t_mapping(t_address,t_uint256)"
					}
				],
				"types": {
					"t_address": {
						"encoding": "inplace",
						"label": "address",
						"numberOfBytes": "20"
					},
					"t_mapping(t_address,t_uint256)": {
						"encoding": "mapping",
						"key": "t_address",
						"label": "mapping(address => uint256)",
						"numberOfBytes": "32",
						"value": "t_uint256"
					},
					"t_string_storage": {
						"encoding": "bytes",
						"label": "string",
						"numberOfBytes": "32"
					},
					"t_uint256": {
						"encoding": "inplace",
						"label": "uint256",
						"numberOfBytes": "32"
					}
				}
			},
			"userdoc": {
				"kind": "user",
				"methods": {},
				"version": 1
			}
		}
	}
}